{
  "contractName": "CarRental",
  "abi": [
    {
      "anonymous": false,
      "inputs": [
        {
          "indexed": false,
          "internalType": "string",
          "name": "carId",
          "type": "string"
        },
        {
          "indexed": true,
          "internalType": "address",
          "name": "driver",
          "type": "address"
        },
        {
          "indexed": false,
          "internalType": "string",
          "name": "userId",
          "type": "string"
        },
        {
          "indexed": false,
          "internalType": "uint256",
          "name": "timestamp",
          "type": "uint256"
        }
      ],
      "name": "CarDriven",
      "type": "event"
    },
    {
      "anonymous": false,
      "inputs": [
        {
          "indexed": false,
          "internalType": "string",
          "name": "carId",
          "type": "string"
        },
        {
          "indexed": true,
          "internalType": "address",
          "name": "renter",
          "type": "address"
        },
        {
          "indexed": false,
          "internalType": "string",
          "name": "userId",
          "type": "string"
        },
        {
          "indexed": false,
          "internalType": "uint256",
          "name": "timestamp",
          "type": "uint256"
        }
      ],
      "name": "CarRented",
      "type": "event"
    },
    {
      "anonymous": false,
      "inputs": [
        {
          "indexed": false,
          "internalType": "string",
          "name": "carId",
          "type": "string"
        },
        {
          "indexed": true,
          "internalType": "address",
          "name": "renter",
          "type": "address"
        },
        {
          "indexed": false,
          "internalType": "string",
          "name": "userId",
          "type": "string"
        },
        {
          "indexed": false,
          "internalType": "uint256",
          "name": "timestamp",
          "type": "uint256"
        }
      ],
      "name": "CarReservationCancelled",
      "type": "event"
    },
    {
      "inputs": [
        {
          "internalType": "string",
          "name": "carId",
          "type": "string"
        },
        {
          "internalType": "string",
          "name": "userId",
          "type": "string"
        }
      ],
      "name": "rentCar",
      "outputs": [],
      "stateMutability": "payable",
      "type": "function",
      "payable": true
    },
    {
      "inputs": [
        {
          "internalType": "string",
          "name": "carId",
          "type": "string"
        },
        {
          "internalType": "string",
          "name": "userId",
          "type": "string"
        }
      ],
      "name": "cancelReservation",
      "outputs": [],
      "stateMutability": "nonpayable",
      "type": "function"
    },
    {
      "inputs": [
        {
          "internalType": "string",
          "name": "carId",
          "type": "string"
        },
        {
          "internalType": "string",
          "name": "userId",
          "type": "string"
        }
      ],
      "name": "driveCar",
      "outputs": [],
      "stateMutability": "nonpayable",
      "type": "function"
    },
    {
      "inputs": [],
      "name": "helloWorld",
      "outputs": [
        {
          "internalType": "string",
          "name": "",
          "type": "string"
        }
      ],
      "stateMutability": "pure",
      "type": "function",
      "constant": true
    }
  ],
  "bytecode": "0x608060405234801561001057600080fd5b506105d2806100206000396000f3fe60806040526004361061003f5760003560e01c80631f66339e14610044578063c605f76c1461006d578063d2fa21e814610098578063ec73afef146100c1575b600080fd5b34801561005057600080fd5b5061006b600480360381019061006691906103b9565b6100dd565b005b34801561007957600080fd5b50610082610133565b60405161008f91906104b0565b60405180910390f35b3480156100a457600080fd5b506100bf60048036038101906100ba91906103b9565b610170565b005b6100db60048036038101906100d691906103b9565b6101c6565b005b3373ffffffffffffffffffffffffffffffffffffffff167f66b5deb5498fdb65028f900216193214b0dbbe717f7fb8da1ec27a4b13188427838342604051610127939291906104eb565b60405180910390a25050565b60606040518060400160405280600d81526020017f48656c6c6f2c20776f726c642100000000000000000000000000000000000000815250905090565b3373ffffffffffffffffffffffffffffffffffffffff167fdd61e065bef0b24b25b225064e71aad0eae6da7ce6f676bc1aa9423fff78aff28383426040516101ba939291906104eb565b60405180910390a25050565b60003411610209576040517f08c379a00000000000000000000000000000000000000000000000000000000081526004016102009061057c565b60405180910390fd5b3373ffffffffffffffffffffffffffffffffffffffff167fa8f7f483896bc5f5d33f1f6af57fa36dc302821e9437f5af17ed3f5d99a959fd838342604051610253939291906104eb565b60405180910390a25050565b6000604051905090565b600080fd5b600080fd5b600080fd5b600080fd5b6000601f19601f8301169050919050565b7f4e487b7100000000000000000000000000000000000000000000000000000000600052604160045260246000fd5b6102c68261027d565b810181811067ffffffffffffffff821117156102e5576102e461028e565b5b80604052505050565b60006102f861025f565b905061030482826102bd565b919050565b600067ffffffffffffffff8211156103245761032361028e565b5b61032d8261027d565b9050602081019050919050565b82818337600083830152505050565b600061035c61035784610309565b6102ee565b90508281526020810184848401111561037857610377610278565b5b61038384828561033a565b509392505050565b600082601f8301126103a05761039f610273565b5b81356103b0848260208601610349565b91505092915050565b600080604083850312156103d0576103cf610269565b5b600083013567ffffffffffffffff8111156103ee576103ed61026e565b5b6103fa8582860161038b565b925050602083013567ffffffffffffffff81111561041b5761041a61026e565b5b6104278582860161038b565b9150509250929050565b600081519050919050565b600082825260208201905092915050565b60005b8381101561046b578082015181840152602081019050610450565b60008484015250505050565b600061048282610431565b61048c818561043c565b935061049c81856020860161044d565b6104a58161027d565b840191505092915050565b600060208201905081810360008301526104ca8184610477565b905092915050565b6000819050919050565b6104e5816104d2565b82525050565b600060608201905081810360008301526105058186610477565b905081810360208301526105198185610477565b905061052860408301846104dc565b949350505050565b7f4e6f2045746865722073656e7400000000000000000000000000000000000000600082015250565b6000610566600d8361043c565b915061057182610530565b602082019050919050565b6000602082019050818103600083015261059581610559565b905091905056fea264697066735822122090fdf9b28ac0aba261da99fc46c372643bf6fd67525c58721dffafaeb725e6d664736f6c63430008130033",
  "immutableReferences": {},
  "source": "// SPDX-License-Identifier: MIT\npragma solidity ^0.8.19;\n\ncontract CarRental {\n\n    event CarRented(\n        string carId,\n        address indexed renter,\n        string userId,\n        uint256 timestamp\n    );\n\n    event CarReservationCancelled(\n        string carId,\n        address indexed renter,\n        string userId,\n        uint256 timestamp\n    );\n\n    event CarDriven(\n        string carId,\n        address indexed driver,\n        string userId,\n        uint256 timestamp\n    );\n\n    function rentCar(string memory carId, string memory userId) public payable {\n        require(msg.value > 0, \"No Ether sent\");\n        emit CarRented(carId, msg.sender, userId, block.timestamp);\n    }\n\n    function cancelReservation(string memory carId, string memory userId) public {\n        emit CarReservationCancelled(carId, msg.sender, userId, block.timestamp);\n    }\n\n    function driveCar(string memory carId, string memory userId) public {\n        emit CarDriven(carId, msg.sender, userId, block.timestamp);\n    }\n\n    function helloWorld() public pure returns (string memory) {\n        return \"Hello, world!\";\n    }\n}",
  "sourcePath": "/Users/mikewegele/source/fu/semester3/smart-contract/smart-contract-vehicle/blockchain/contracts/CarRental.sol",
  "compiler": {
    "name": "solc",
    "version": "0.8.19+commit.7dd6d404.Emscripten.clang"
  },
  "schemaVersion": "3.4.16",
  "updatedAt": "2025-06-25T08:21:31.506Z",
  "networkType": "ethereum",
  "devdoc": {
    "kind": "dev",
    "methods": {},
    "version": 1
  },
  "userdoc": {
    "kind": "user",
    "methods": {},
    "version": 1
  }
}