{
  "contractName": "CarRental",
  "abi": [
    {
      "anonymous": false,
      "inputs": [
        {
          "indexed": false,
          "internalType": "string",
          "name": "carId",
          "type": "string"
        },
        {
          "indexed": true,
          "internalType": "address",
          "name": "renter",
          "type": "address"
        },
        {
          "indexed": false,
          "internalType": "string",
          "name": "userId",
          "type": "string"
        },
        {
          "indexed": false,
          "internalType": "uint256",
          "name": "timestamp",
          "type": "uint256"
        }
      ],
      "name": "CarRented",
      "type": "event"
    },
    {
      "anonymous": false,
      "inputs": [
        {
          "indexed": false,
          "internalType": "string",
          "name": "carId",
          "type": "string"
        },
        {
          "indexed": true,
          "internalType": "address",
          "name": "renter",
          "type": "address"
        },
        {
          "indexed": false,
          "internalType": "string",
          "name": "userId",
          "type": "string"
        },
        {
          "indexed": false,
          "internalType": "uint256",
          "name": "timestamp",
          "type": "uint256"
        }
      ],
      "name": "CarReservationCancelled",
      "type": "event"
    },
    {
      "inputs": [
        {
          "internalType": "string",
          "name": "carId",
          "type": "string"
        },
        {
          "internalType": "string",
          "name": "userId",
          "type": "string"
        }
      ],
      "name": "rentCar",
      "outputs": [],
      "stateMutability": "payable",
      "type": "function",
      "payable": true
    },
    {
      "inputs": [
        {
          "internalType": "string",
          "name": "carId",
          "type": "string"
        },
        {
          "internalType": "string",
          "name": "userId",
          "type": "string"
        }
      ],
      "name": "cancelReservation",
      "outputs": [],
      "stateMutability": "nonpayable",
      "type": "function"
    },
    {
      "inputs": [],
      "name": "helloWorld",
      "outputs": [
        {
          "internalType": "string",
          "name": "",
          "type": "string"
        }
      ],
      "stateMutability": "pure",
      "type": "function",
      "constant": true
    }
  ],
  "bytecode": "0x608060405234801561001057600080fd5b50610548806100206000396000f3fe6080604052600436106100345760003560e01c8063c605f76c14610039578063d2fa21e814610064578063ec73afef1461008d575b600080fd5b34801561004557600080fd5b5061004e6100a9565b60405161005b9190610265565b60405180910390f35b34801561007057600080fd5b5061008b600480360381019061008691906103d0565b6100e6565b005b6100a760048036038101906100a291906103d0565b61013c565b005b60606040518060400160405280600d81526020017f48656c6c6f2c20776f726c642100000000000000000000000000000000000000815250905090565b3373ffffffffffffffffffffffffffffffffffffffff167fdd61e065bef0b24b25b225064e71aad0eae6da7ce6f676bc1aa9423fff78aff283834260405161013093929190610461565b60405180910390a25050565b6000341161017f576040517f08c379a0000000000000000000000000000000000000000000000000000000008152600401610176906104f2565b60405180910390fd5b3373ffffffffffffffffffffffffffffffffffffffff167fa8f7f483896bc5f5d33f1f6af57fa36dc302821e9437f5af17ed3f5d99a959fd8383426040516101c993929190610461565b60405180910390a25050565b600081519050919050565b600082825260208201905092915050565b60005b8381101561020f5780820151818401526020810190506101f4565b60008484015250505050565b6000601f19601f8301169050919050565b6000610237826101d5565b61024181856101e0565b93506102518185602086016101f1565b61025a8161021b565b840191505092915050565b6000602082019050818103600083015261027f818461022c565b905092915050565b6000604051905090565b600080fd5b600080fd5b600080fd5b600080fd5b7f4e487b7100000000000000000000000000000000000000000000000000000000600052604160045260246000fd5b6102dd8261021b565b810181811067ffffffffffffffff821117156102fc576102fb6102a5565b5b80604052505050565b600061030f610287565b905061031b82826102d4565b919050565b600067ffffffffffffffff82111561033b5761033a6102a5565b5b6103448261021b565b9050602081019050919050565b82818337600083830152505050565b600061037361036e84610320565b610305565b90508281526020810184848401111561038f5761038e6102a0565b5b61039a848285610351565b509392505050565b600082601f8301126103b7576103b661029b565b5b81356103c7848260208601610360565b91505092915050565b600080604083850312156103e7576103e6610291565b5b600083013567ffffffffffffffff81111561040557610404610296565b5b610411858286016103a2565b925050602083013567ffffffffffffffff81111561043257610431610296565b5b61043e858286016103a2565b9150509250929050565b6000819050919050565b61045b81610448565b82525050565b6000606082019050818103600083015261047b818661022c565b9050818103602083015261048f818561022c565b905061049e6040830184610452565b949350505050565b7f4e6f2045746865722073656e7400000000000000000000000000000000000000600082015250565b60006104dc600d836101e0565b91506104e7826104a6565b602082019050919050565b6000602082019050818103600083015261050b816104cf565b905091905056fea264697066735822122084b770c710be38d12d98cd6589330f99f1c2e368af29f08cddf73352119dadb364736f6c63430008130033",
  "immutableReferences": {},
  "source": "// SPDX-License-Identifier: MIT\npragma solidity ^0.8.19;\n\ncontract CarRental {\n\n    event CarRented(\n        string carId,\n        address indexed renter,\n        string userId,\n        uint256 timestamp\n    );\n\n    event CarReservationCancelled(\n        string carId,\n        address indexed renter,\n        string userId,\n        uint256 timestamp\n    );\n\n\n    function rentCar(string memory carId, string memory userId) public payable {\n        require(msg.value > 0, \"No Ether sent\");\n        emit CarRented(carId, msg.sender, userId, block.timestamp);\n    }\n\n    function cancelReservation(string memory carId, string memory userId) public {\n        emit CarReservationCancelled(carId, msg.sender, userId, block.timestamp);\n    }\n\n    function helloWorld() public pure returns (string memory) {\n        return \"Hello, world!\";\n    }\n}",
  "sourcePath": "/Users/mikewegele/source/fu/semester3/smart-contract/smart-contract-vehicle/blockchain/contracts/CarRental.sol",
  "compiler": {
    "name": "solc",
    "version": "0.8.19+commit.7dd6d404.Emscripten.clang"
  },
  "schemaVersion": "3.4.16",
  "updatedAt": "2025-06-25T06:42:52.554Z",
  "networkType": "ethereum",
  "devdoc": {
    "kind": "dev",
    "methods": {},
    "version": 1
  },
  "userdoc": {
    "kind": "user",
    "methods": {},
    "version": 1
  }
}