{
  "contractName": "CarRental",
  "abi": [
    {
      "anonymous": false,
      "inputs": [
        {
          "indexed": false,
          "internalType": "string",
          "name": "carId",
          "type": "string"
        },
        {
          "indexed": true,
          "internalType": "address",
          "name": "driver",
          "type": "address"
        },
        {
          "indexed": false,
          "internalType": "string",
          "name": "userId",
          "type": "string"
        },
        {
          "indexed": false,
          "internalType": "uint256",
          "name": "timestamp",
          "type": "uint256"
        }
      ],
      "name": "CarDriven",
      "type": "event"
    },
    {
      "anonymous": false,
      "inputs": [
        {
          "indexed": false,
          "internalType": "string",
          "name": "carId",
          "type": "string"
        },
        {
          "indexed": true,
          "internalType": "address",
          "name": "renter",
          "type": "address"
        },
        {
          "indexed": false,
          "internalType": "string",
          "name": "userId",
          "type": "string"
        },
        {
          "indexed": false,
          "internalType": "uint256",
          "name": "timestamp",
          "type": "uint256"
        },
        {
          "indexed": false,
          "internalType": "uint256",
          "name": "value",
          "type": "uint256"
        }
      ],
      "name": "CarRented",
      "type": "event"
    },
    {
      "anonymous": false,
      "inputs": [
        {
          "indexed": false,
          "internalType": "string",
          "name": "carId",
          "type": "string"
        },
        {
          "indexed": true,
          "internalType": "address",
          "name": "renter",
          "type": "address"
        },
        {
          "indexed": false,
          "internalType": "string",
          "name": "userId",
          "type": "string"
        },
        {
          "indexed": false,
          "internalType": "uint256",
          "name": "timestamp",
          "type": "uint256"
        }
      ],
      "name": "CarReservationCancelled",
      "type": "event"
    },
    {
      "anonymous": false,
      "inputs": [
        {
          "indexed": false,
          "internalType": "string",
          "name": "carId",
          "type": "string"
        },
        {
          "indexed": true,
          "internalType": "address",
          "name": "driver",
          "type": "address"
        },
        {
          "indexed": false,
          "internalType": "string",
          "name": "userId",
          "type": "string"
        },
        {
          "indexed": false,
          "internalType": "uint256",
          "name": "timestamp",
          "type": "uint256"
        },
        {
          "indexed": false,
          "internalType": "uint256",
          "name": "value",
          "type": "uint256"
        }
      ],
      "name": "CarReturned",
      "type": "event"
    },
    {
      "inputs": [
        {
          "internalType": "string",
          "name": "carId",
          "type": "string"
        },
        {
          "internalType": "string",
          "name": "userId",
          "type": "string"
        }
      ],
      "name": "rentCar",
      "outputs": [],
      "stateMutability": "payable",
      "type": "function",
      "payable": true
    },
    {
      "inputs": [
        {
          "internalType": "string",
          "name": "carId",
          "type": "string"
        },
        {
          "internalType": "string",
          "name": "userId",
          "type": "string"
        }
      ],
      "name": "cancelReservation",
      "outputs": [],
      "stateMutability": "nonpayable",
      "type": "function"
    },
    {
      "inputs": [
        {
          "internalType": "string",
          "name": "carId",
          "type": "string"
        },
        {
          "internalType": "string",
          "name": "userId",
          "type": "string"
        }
      ],
      "name": "driveCar",
      "outputs": [],
      "stateMutability": "nonpayable",
      "type": "function"
    },
    {
      "inputs": [
        {
          "internalType": "string",
          "name": "carId",
          "type": "string"
        },
        {
          "internalType": "string",
          "name": "userId",
          "type": "string"
        }
      ],
      "name": "returnCar",
      "outputs": [],
      "stateMutability": "payable",
      "type": "function",
      "payable": true
    },
    {
      "inputs": [],
      "name": "helloWorld",
      "outputs": [
        {
          "internalType": "string",
          "name": "",
          "type": "string"
        }
      ],
      "stateMutability": "pure",
      "type": "function",
      "constant": true
    }
  ],
  "bytecode": "0x608060405234801561001057600080fd5b5061077b806100206000396000f3fe60806040526004361061004a5760003560e01c80631f66339e1461004f578063c605f76c14610078578063d2fa21e8146100a3578063ea1f2762146100cc578063ec73afef146100e8575b600080fd5b34801561005b57600080fd5b506100766004803603810190610071919061047d565b610104565b005b34801561008457600080fd5b5061008d61015a565b60405161009a9190610574565b60405180910390f35b3480156100af57600080fd5b506100ca60048036038101906100c5919061047d565b610197565b005b6100e660048036038101906100e1919061047d565b6101ed565b005b61010260048036038101906100fd919061047d565b610288565b005b3373ffffffffffffffffffffffffffffffffffffffff167f66b5deb5498fdb65028f900216193214b0dbbe717f7fb8da1ec27a4b1318842783834260405161014e939291906105af565b60405180910390a25050565b60606040518060400160405280600d81526020017f48656c6c6f2c20776f726c642100000000000000000000000000000000000000815250905090565b3373ffffffffffffffffffffffffffffffffffffffff167fdd61e065bef0b24b25b225064e71aad0eae6da7ce6f676bc1aa9423fff78aff28383426040516101e1939291906105af565b60405180910390a25050565b60003411610230576040517f08c379a000000000000000000000000000000000000000000000000000000000815260040161022790610666565b60405180910390fd5b3373ffffffffffffffffffffffffffffffffffffffff167f119c0c337fa6fdfa2edca2570b7f37c124fb4f73621a643fbec91b5b1c8c293e8383423460405161027c9493929190610686565b60405180910390a25050565b600034116102cb576040517f08c379a00000000000000000000000000000000000000000000000000000000081526004016102c290610725565b60405180910390fd5b3373ffffffffffffffffffffffffffffffffffffffff167fe501fe971ad6d26bc7c8a8b850a4c9eb081e7b85edf88130af3c602052c6d619838342346040516103179493929190610686565b60405180910390a25050565b6000604051905090565b600080fd5b600080fd5b600080fd5b600080fd5b6000601f19601f8301169050919050565b7f4e487b7100000000000000000000000000000000000000000000000000000000600052604160045260246000fd5b61038a82610341565b810181811067ffffffffffffffff821117156103a9576103a8610352565b5b80604052505050565b60006103bc610323565b90506103c88282610381565b919050565b600067ffffffffffffffff8211156103e8576103e7610352565b5b6103f182610341565b9050602081019050919050565b82818337600083830152505050565b600061042061041b846103cd565b6103b2565b90508281526020810184848401111561043c5761043b61033c565b5b6104478482856103fe565b509392505050565b600082601f83011261046457610463610337565b5b813561047484826020860161040d565b91505092915050565b600080604083850312156104945761049361032d565b5b600083013567ffffffffffffffff8111156104b2576104b1610332565b5b6104be8582860161044f565b925050602083013567ffffffffffffffff8111156104df576104de610332565b5b6104eb8582860161044f565b9150509250929050565b600081519050919050565b600082825260208201905092915050565b60005b8381101561052f578082015181840152602081019050610514565b60008484015250505050565b6000610546826104f5565b6105508185610500565b9350610560818560208601610511565b61056981610341565b840191505092915050565b6000602082019050818103600083015261058e818461053b565b905092915050565b6000819050919050565b6105a981610596565b82525050565b600060608201905081810360008301526105c9818661053b565b905081810360208301526105dd818561053b565b90506105ec60408301846105a0565b949350505050565b7f5061796d656e7420726571756972656420746f2066696e69736820647269766960008201527f6e67000000000000000000000000000000000000000000000000000000000000602082015250565b6000610650602283610500565b915061065b826105f4565b604082019050919050565b6000602082019050818103600083015261067f81610643565b9050919050565b600060808201905081810360008301526106a0818761053b565b905081810360208301526106b4818661053b565b90506106c360408301856105a0565b6106d060608301846105a0565b95945050505050565b7f4e6f2045746865722073656e7400000000000000000000000000000000000000600082015250565b600061070f600d83610500565b915061071a826106d9565b602082019050919050565b6000602082019050818103600083015261073e81610702565b905091905056fea2646970667358221220e398f7cc20e67c513e921523bbd90e636f3098d62741149d86ef83788e633b6164736f6c63430008130033",
  "immutableReferences": {},
  "source": "// SPDX-License-Identifier: MIT\npragma solidity ^0.8.19;\n\ncontract CarRental {\n\n    event CarRented(\n        string carId,\n        address indexed renter,\n        string userId,\n        uint256 timestamp,\n        uint256 value\n    );\n\n    event CarReservationCancelled(\n        string carId,\n        address indexed renter,\n        string userId,\n        uint256 timestamp\n    );\n\n    event CarDriven(\n        string carId,\n        address indexed driver,\n        string userId,\n        uint256 timestamp\n    );\n\n    event CarReturned(\n        string carId,\n        address indexed driver,\n        string userId,\n        uint256 timestamp,\n        uint256 value\n    );\n\n    function rentCar(string memory carId, string memory userId) public payable {\n        require(msg.value > 0, \"No Ether sent\");\n        emit CarRented(carId, msg.sender, userId, block.timestamp, msg.value);\n    }\n\n    function cancelReservation(string memory carId, string memory userId) public {\n        emit CarReservationCancelled(carId, msg.sender, userId, block.timestamp);\n    }\n\n    function driveCar(string memory carId, string memory userId) public {\n        emit CarDriven(carId, msg.sender, userId, block.timestamp);\n    }\n\n    function returnCar(string memory carId, string memory userId) public payable {\n        require(msg.value > 0, \"Payment required to finish driving\");\n        emit CarReturned(carId, msg.sender, userId, block.timestamp, msg.value);\n    }\n\n    function helloWorld() public pure returns (string memory) {\n        return \"Hello, world!\";\n    }\n}",
  "sourcePath": "/Users/mikewegele/source/fu/semester3/smart-contract/smart-contract-vehicle/blockchain/contracts/CarRental.sol",
  "compiler": {
    "name": "solc",
    "version": "0.8.19+commit.7dd6d404.Emscripten.clang"
  },
  "schemaVersion": "3.4.16",
  "updatedAt": "2025-06-29T09:44:27.444Z",
  "networkType": "ethereum",
  "devdoc": {
    "kind": "dev",
    "methods": {},
    "version": 1
  },
  "userdoc": {
    "kind": "user",
    "methods": {},
    "version": 1
  }
}