{
  "contractName": "CarRental",
  "abi": [
    {
      "inputs": [],
      "stateMutability": "nonpayable",
      "type": "constructor"
    },
    {
      "anonymous": false,
      "inputs": [
        {
          "indexed": false,
          "internalType": "uint256",
          "name": "carId",
          "type": "uint256"
        },
        {
          "indexed": false,
          "internalType": "string",
          "name": "model",
          "type": "string"
        },
        {
          "indexed": false,
          "internalType": "uint256",
          "name": "pricePerDay",
          "type": "uint256"
        }
      ],
      "name": "CarAdded",
      "type": "event"
    },
    {
      "anonymous": false,
      "inputs": [
        {
          "indexed": false,
          "internalType": "uint256",
          "name": "carId",
          "type": "uint256"
        },
        {
          "indexed": false,
          "internalType": "address",
          "name": "renter",
          "type": "address"
        },
        {
          "indexed": false,
          "internalType": "uint256",
          "name": "daysRented",
          "type": "uint256"
        }
      ],
      "name": "CarRented",
      "type": "event"
    },
    {
      "anonymous": false,
      "inputs": [
        {
          "indexed": false,
          "internalType": "uint256",
          "name": "carId",
          "type": "uint256"
        },
        {
          "indexed": false,
          "internalType": "address",
          "name": "renter",
          "type": "address"
        }
      ],
      "name": "CarReturned",
      "type": "event"
    },
    {
      "inputs": [
        {
          "internalType": "uint256",
          "name": "",
          "type": "uint256"
        }
      ],
      "name": "cars",
      "outputs": [
        {
          "internalType": "uint256",
          "name": "id",
          "type": "uint256"
        },
        {
          "internalType": "string",
          "name": "model",
          "type": "string"
        },
        {
          "internalType": "uint256",
          "name": "pricePerDay",
          "type": "uint256"
        },
        {
          "internalType": "bool",
          "name": "isAvailable",
          "type": "bool"
        },
        {
          "internalType": "address",
          "name": "renter",
          "type": "address"
        }
      ],
      "stateMutability": "view",
      "type": "function",
      "constant": true
    },
    {
      "inputs": [],
      "name": "nextCarId",
      "outputs": [
        {
          "internalType": "uint256",
          "name": "",
          "type": "uint256"
        }
      ],
      "stateMutability": "view",
      "type": "function",
      "constant": true
    },
    {
      "inputs": [],
      "name": "owner",
      "outputs": [
        {
          "internalType": "address",
          "name": "",
          "type": "address"
        }
      ],
      "stateMutability": "view",
      "type": "function",
      "constant": true
    },
    {
      "inputs": [],
      "name": "helloWorld",
      "outputs": [
        {
          "internalType": "string",
          "name": "",
          "type": "string"
        }
      ],
      "stateMutability": "pure",
      "type": "function",
      "constant": true
    },
    {
      "inputs": [
        {
          "internalType": "string",
          "name": "model",
          "type": "string"
        },
        {
          "internalType": "uint256",
          "name": "pricePerDay",
          "type": "uint256"
        }
      ],
      "name": "addCar",
      "outputs": [],
      "stateMutability": "nonpayable",
      "type": "function"
    },
    {
      "inputs": [
        {
          "internalType": "uint256",
          "name": "carId",
          "type": "uint256"
        },
        {
          "internalType": "uint256",
          "name": "numberOfDays",
          "type": "uint256"
        }
      ],
      "name": "rentCar",
      "outputs": [],
      "stateMutability": "payable",
      "type": "function",
      "payable": true
    },
    {
      "inputs": [
        {
          "internalType": "uint256",
          "name": "carId",
          "type": "uint256"
        }
      ],
      "name": "returnCar",
      "outputs": [],
      "stateMutability": "nonpayable",
      "type": "function"
    },
    {
      "inputs": [
        {
          "internalType": "uint256",
          "name": "carId",
          "type": "uint256"
        }
      ],
      "name": "getCar",
      "outputs": [
        {
          "components": [
            {
              "internalType": "uint256",
              "name": "id",
              "type": "uint256"
            },
            {
              "internalType": "string",
              "name": "model",
              "type": "string"
            },
            {
              "internalType": "uint256",
              "name": "pricePerDay",
              "type": "uint256"
            },
            {
              "internalType": "bool",
              "name": "isAvailable",
              "type": "bool"
            },
            {
              "internalType": "address",
              "name": "renter",
              "type": "address"
            }
          ],
          "internalType": "struct CarRental.Car",
          "name": "",
          "type": "tuple"
        }
      ],
      "stateMutability": "view",
      "type": "function",
      "constant": true
    },
    {
      "inputs": [],
      "name": "withdraw",
      "outputs": [],
      "stateMutability": "nonpayable",
      "type": "function"
    }
  ],
  "bytecode": "0x60806040526001805534801561001457600080fd5b50336000806101000a81548173ffffffffffffffffffffffffffffffffffffffff021916908373ffffffffffffffffffffffffffffffffffffffff160217905550611590806100646000396000f3fe6080604052600436106100865760003560e01c80638da5cb5b116100595780638da5cb5b14610133578063965ac0c51461015e5780639ca0fc0d14610187578063c605f76c146101a3578063f7746e36146101ce57610086565b806317f956e01461008b5780633ccfd60b146100b45780635e8be190146100cb5780638c8bfa0614610108575b600080fd5b34801561009757600080fd5b506100b260048036038101906100ad9190610abb565b61020f565b005b3480156100c057600080fd5b506100c961036a565b005b3480156100d757600080fd5b506100f260048036038101906100ed9190610abb565b610461565b6040516100ff9190610c59565b60405180910390f35b34801561011457600080fd5b5061011d6105a5565b60405161012a9190610c8a565b60405180910390f35b34801561013f57600080fd5b506101486105ab565b6040516101559190610cb4565b60405180910390f35b34801561016a57600080fd5b5061018560048036038101906101809190610e04565b6105cf565b005b6101a1600480360381019061019c9190610e60565b6107a2565b005b3480156101af57600080fd5b506101b8610902565b6040516101c59190610eea565b60405180910390f35b3480156101da57600080fd5b506101f560048036038101906101f09190610abb565b61093f565b604051610206959493929190610f1b565b60405180910390f35b803373ffffffffffffffffffffffffffffffffffffffff166002600083815260200190815260200160002060030160019054906101000a900473ffffffffffffffffffffffffffffffffffffffff1673ffffffffffffffffffffffffffffffffffffffff16146102b4576040517f08c379a00000000000000000000000000000000000000000000000000000000081526004016102ab90610fc1565b60405180910390fd5b600060026000848152602001908152602001600020905060018160030160006101000a81548160ff02191690831515021790555060008160030160016101000a81548173ffffffffffffffffffffffffffffffffffffffff021916908373ffffffffffffffffffffffffffffffffffffffff1602179055507fc0de8d61eb21cbee172fbd668a1694aaadbe1e0cd72b19a7471fdae993be2e78833360405161035d929190610fe1565b60405180910390a1505050565b60008054906101000a900473ffffffffffffffffffffffffffffffffffffffff1673ffffffffffffffffffffffffffffffffffffffff163373ffffffffffffffffffffffffffffffffffffffff16146103f8576040517f08c379a00000000000000000000000000000000000000000000000000000000081526004016103ef90611056565b60405180910390fd5b60008054906101000a900473ffffffffffffffffffffffffffffffffffffffff1673ffffffffffffffffffffffffffffffffffffffff166108fc479081150290604051600060405180830381858888f1935050505015801561045e573d6000803e3d6000fd5b50565b610469610a2a565b600260008381526020019081526020016000206040518060a0016040529081600082015481526020016001820180546104a1906110a5565b80601f01602080910402602001604051908101604052809291908181526020018280546104cd906110a5565b801561051a5780601f106104ef5761010080835404028352916020019161051a565b820191906000526020600020905b8154815290600101906020018083116104fd57829003601f168201915b50505050508152602001600282015481526020016003820160009054906101000a900460ff161515151581526020016003820160019054906101000a900473ffffffffffffffffffffffffffffffffffffffff1673ffffffffffffffffffffffffffffffffffffffff1673ffffffffffffffffffffffffffffffffffffffff16815250509050919050565b60015481565b60008054906101000a900473ffffffffffffffffffffffffffffffffffffffff1681565b60008054906101000a900473ffffffffffffffffffffffffffffffffffffffff1673ffffffffffffffffffffffffffffffffffffffff163373ffffffffffffffffffffffffffffffffffffffff161461065d576040517f08c379a000000000000000000000000000000000000000000000000000000000815260040161065490611056565b60405180910390fd5b6040518060a001604052806001548152602001838152602001828152602001600115158152602001600073ffffffffffffffffffffffffffffffffffffffff168152506002600060015481526020019081526020016000206000820151816000015560208201518160010190816106d49190611282565b506040820151816002015560608201518160030160006101000a81548160ff02191690831515021790555060808201518160030160016101000a81548173ffffffffffffffffffffffffffffffffffffffff021916908373ffffffffffffffffffffffffffffffffffffffff1602179055509050507fc7e9162c67bcf36a9897d9c95466ec8a031fc9ba47d5a3989c060dd040c2c015600154838360405161077e93929190611354565b60405180910390a160016000815480929190610799906113c1565b91905055505050565b60006002600084815260200190815260200160002090508060030160009054906101000a900460ff1661080a576040517f08c379a000000000000000000000000000000000000000000000000000000000815260040161080190611455565b60405180910390fd5b600082826002015461081c9190611475565b905080341015610861576040517f08c379a000000000000000000000000000000000000000000000000000000000815260040161085890611503565b60405180910390fd5b60008260030160006101000a81548160ff021916908315150217905550338260030160016101000a81548173ffffffffffffffffffffffffffffffffffffffff021916908373ffffffffffffffffffffffffffffffffffffffff1602179055507fe880d822f4bdb63368fee99cd4a95706e7c7fdf51c0d2edd68bb8f4d0ea0fe728433856040516108f493929190611523565b60405180910390a150505050565b60606040518060400160405280600d81526020017f48656c6c6f2c20776f726c642100000000000000000000000000000000000000815250905090565b6002602052806000526040600020600091509050806000015490806001018054610968906110a5565b80601f0160208091040260200160405190810160405280929190818152602001828054610994906110a5565b80156109e15780601f106109b6576101008083540402835291602001916109e1565b820191906000526020600020905b8154815290600101906020018083116109c457829003601f168201915b5050505050908060020154908060030160009054906101000a900460ff16908060030160019054906101000a900473ffffffffffffffffffffffffffffffffffffffff16905085565b6040518060a00160405280600081526020016060815260200160008152602001600015158152602001600073ffffffffffffffffffffffffffffffffffffffff1681525090565b6000604051905090565b600080fd5b600080fd5b6000819050919050565b610a9881610a85565b8114610aa357600080fd5b50565b600081359050610ab581610a8f565b92915050565b600060208284031215610ad157610ad0610a7b565b5b6000610adf84828501610aa6565b91505092915050565b610af181610a85565b82525050565b600081519050919050565b600082825260208201905092915050565b60005b83811015610b31578082015181840152602081019050610b16565b60008484015250505050565b6000601f19601f8301169050919050565b6000610b5982610af7565b610b638185610b02565b9350610b73818560208601610b13565b610b7c81610b3d565b840191505092915050565b60008115159050919050565b610b9c81610b87565b82525050565b600073ffffffffffffffffffffffffffffffffffffffff82169050919050565b6000610bcd82610ba2565b9050919050565b610bdd81610bc2565b82525050565b600060a083016000830151610bfb6000860182610ae8565b5060208301518482036020860152610c138282610b4e565b9150506040830151610c286040860182610ae8565b506060830151610c3b6060860182610b93565b506080830151610c4e6080860182610bd4565b508091505092915050565b60006020820190508181036000830152610c738184610be3565b905092915050565b610c8481610a85565b82525050565b6000602082019050610c9f6000830184610c7b565b92915050565b610cae81610bc2565b82525050565b6000602082019050610cc96000830184610ca5565b92915050565b600080fd5b600080fd5b7f4e487b7100000000000000000000000000000000000000000000000000000000600052604160045260246000fd5b610d1182610b3d565b810181811067ffffffffffffffff82111715610d3057610d2f610cd9565b5b80604052505050565b6000610d43610a71565b9050610d4f8282610d08565b919050565b600067ffffffffffffffff821115610d6f57610d6e610cd9565b5b610d7882610b3d565b9050602081019050919050565b82818337600083830152505050565b6000610da7610da284610d54565b610d39565b905082815260208101848484011115610dc357610dc2610cd4565b5b610dce848285610d85565b509392505050565b600082601f830112610deb57610dea610ccf565b5b8135610dfb848260208601610d94565b91505092915050565b60008060408385031215610e1b57610e1a610a7b565b5b600083013567ffffffffffffffff811115610e3957610e38610a80565b5b610e4585828601610dd6565b9250506020610e5685828601610aa6565b9150509250929050565b60008060408385031215610e7757610e76610a7b565b5b6000610e8585828601610aa6565b9250506020610e9685828601610aa6565b9150509250929050565b600082825260208201905092915050565b6000610ebc82610af7565b610ec68185610ea0565b9350610ed6818560208601610b13565b610edf81610b3d565b840191505092915050565b60006020820190508181036000830152610f048184610eb1565b905092915050565b610f1581610b87565b82525050565b600060a082019050610f306000830188610c7b565b8181036020830152610f428187610eb1565b9050610f516040830186610c7b565b610f5e6060830185610f0c565b610f6b6080830184610ca5565b9695505050505050565b7f596f75206469646e27742072656e742074686973206361720000000000000000600082015250565b6000610fab601883610ea0565b9150610fb682610f75565b602082019050919050565b60006020820190508181036000830152610fda81610f9e565b9050919050565b6000604082019050610ff66000830185610c7b565b6110036020830184610ca5565b9392505050565b7f4f6e6c79206f776e65722063616e20646f207468697300000000000000000000600082015250565b6000611040601683610ea0565b915061104b8261100a565b602082019050919050565b6000602082019050818103600083015261106f81611033565b9050919050565b7f4e487b7100000000000000000000000000000000000000000000000000000000600052602260045260246000fd5b600060028204905060018216806110bd57607f821691505b6020821081036110d0576110cf611076565b5b50919050565b60008190508160005260206000209050919050565b60006020601f8301049050919050565b600082821b905092915050565b6000600883026111387fffffffffffffffffffffffffffffffffffffffffffffffffffffffffffffffff826110fb565b61114286836110fb565b95508019841693508086168417925050509392505050565b6000819050919050565b600061117f61117a61117584610a85565b61115a565b610a85565b9050919050565b6000819050919050565b61119983611164565b6111ad6111a582611186565b848454611108565b825550505050565b600090565b6111c26111b5565b6111cd818484611190565b505050565b5b818110156111f1576111e66000826111ba565b6001810190506111d3565b5050565b601f82111561123657611207816110d6565b611210846110eb565b8101602085101561121f578190505b61123361122b856110eb565b8301826111d2565b50505b505050565b600082821c905092915050565b60006112596000198460080261123b565b1980831691505092915050565b60006112728383611248565b9150826002028217905092915050565b61128b82610af7565b67ffffffffffffffff8111156112a4576112a3610cd9565b5b6112ae82546110a5565b6112b98282856111f5565b600060209050601f8311600181146112ec57600084156112da578287015190505b6112e48582611266565b86555061134c565b601f1984166112fa866110d6565b60005b82811015611322578489015182556001820191506020850194506020810190506112fd565b8683101561133f578489015161133b601f891682611248565b8355505b6001600288020188555050505b505050505050565b60006060820190506113696000830186610c7b565b818103602083015261137b8185610eb1565b905061138a6040830184610c7b565b949350505050565b7f4e487b7100000000000000000000000000000000000000000000000000000000600052601160045260246000fd5b60006113cc82610a85565b91507fffffffffffffffffffffffffffffffffffffffffffffffffffffffffffffffff82036113fe576113fd611392565b5b600182019050919050565b7f436172206e6f7420617661696c61626c65000000000000000000000000000000600082015250565b600061143f601183610ea0565b915061144a82611409565b602082019050919050565b6000602082019050818103600083015261146e81611432565b9050919050565b600061148082610a85565b915061148b83610a85565b925082820261149981610a85565b915082820484148315176114b0576114af611392565b5b5092915050565b7f4e6f7420656e6f756768204554482073656e7400000000000000000000000000600082015250565b60006114ed601383610ea0565b91506114f8826114b7565b602082019050919050565b6000602082019050818103600083015261151c816114e0565b9050919050565b60006060820190506115386000830186610c7b565b6115456020830185610ca5565b6115526040830184610c7b565b94935050505056fea264697066735822122073e94ecf0e03c73e363f33caa31f8110180e8d1be3ba514ac162bc624eec2c1e64736f6c63430008130033",
  "immutableReferences": {},
  "source": "// SPDX-License-Identifier: MIT\npragma solidity ^0.8.19;\n\ncontract CarRental {\n    address public owner;\n\n    constructor() {\n        owner = msg.sender;\n    }\n\n    struct Car {\n        uint256 id;\n        string model;\n        uint256 pricePerDay;\n        bool isAvailable;\n        address renter;\n    }\n\n    uint256 public nextCarId = 1;\n    mapping(uint256 => Car) public cars;\n\n    event CarAdded(uint256 carId, string model, uint256 pricePerDay);\n    event CarRented(uint256 carId, address renter, uint256 daysRented);\n    event CarReturned(uint256 carId, address renter);\n\n    function helloWorld() public pure returns (string memory) {\n        return \"Hello, world!\";\n    }\n\n    modifier onlyOwner() {\n        require(msg.sender == owner, \"Only owner can do this\");\n        _;\n    }\n\n    modifier onlyRenter(uint256 carId) {\n        require(cars[carId].renter == msg.sender, \"You didn't rent this car\");\n        _;\n    }\n\n    function addCar(string memory model, uint256 pricePerDay) public onlyOwner {\n        cars[nextCarId] = Car(nextCarId, model, pricePerDay, true, address(0));\n        emit CarAdded(nextCarId, model, pricePerDay);\n        nextCarId++;\n    }\n\n    function rentCar(uint256 carId, uint256 numberOfDays) public payable {\n        Car storage car = cars[carId];\n        require(car.isAvailable, \"Car not available\");\n        uint256 totalCost = car.pricePerDay * numberOfDays;\n        require(msg.value >= totalCost, \"Not enough ETH sent\");\n\n        car.isAvailable = false;\n        car.renter = msg.sender;\n\n        emit CarRented(carId, msg.sender, numberOfDays);\n    }\n\n    function returnCar(uint256 carId) public onlyRenter(carId) {\n        Car storage car = cars[carId];\n        car.isAvailable = true;\n        car.renter = address(0);\n\n        emit CarReturned(carId, msg.sender);\n    }\n\n    function getCar(uint256 carId) public view returns (Car memory) {\n        return cars[carId];\n    }\n\n    function withdraw() public onlyOwner {\n        payable(owner).transfer(address(this).balance);\n    }\n}\n",
  "sourcePath": "/Users/mikewegele/source/fu/semester3/smart-contract/smart-contract-vehicle/blockchain/contracts/CarRental.sol",
  "compiler": {
    "name": "solc",
    "version": "0.8.19+commit.7dd6d404.Emscripten.clang"
  },
  "schemaVersion": "3.4.16",
  "updatedAt": "2025-06-14T09:50:56.218Z",
  "networkType": "ethereum",
  "devdoc": {
    "kind": "dev",
    "methods": {},
    "version": 1
  },
  "userdoc": {
    "kind": "user",
    "methods": {},
    "version": 1
  }
}