{
  "contractName": "CarRental",
  "abi": [
    {
      "inputs": [],
      "stateMutability": "nonpayable",
      "type": "constructor"
    },
    {
      "anonymous": false,
      "inputs": [
        {
          "indexed": false,
          "internalType": "uint256",
          "name": "carId",
          "type": "uint256"
        },
        {
          "indexed": false,
          "internalType": "string",
          "name": "model",
          "type": "string"
        },
        {
          "indexed": false,
          "internalType": "uint256",
          "name": "pricePerDay",
          "type": "uint256"
        }
      ],
      "name": "CarAdded",
      "type": "event"
    },
    {
      "anonymous": false,
      "inputs": [
        {
          "indexed": false,
          "internalType": "uint256",
          "name": "carId",
          "type": "uint256"
        },
        {
          "indexed": false,
          "internalType": "address",
          "name": "renter",
          "type": "address"
        },
        {
          "indexed": false,
          "internalType": "uint256",
          "name": "daysRented",
          "type": "uint256"
        }
      ],
      "name": "CarRented",
      "type": "event"
    },
    {
      "anonymous": false,
      "inputs": [
        {
          "indexed": false,
          "internalType": "uint256",
          "name": "carId",
          "type": "uint256"
        },
        {
          "indexed": false,
          "internalType": "address",
          "name": "renter",
          "type": "address"
        }
      ],
      "name": "CarReturned",
      "type": "event"
    },
    {
      "inputs": [
        {
          "internalType": "uint256",
          "name": "",
          "type": "uint256"
        }
      ],
      "name": "cars",
      "outputs": [
        {
          "internalType": "uint256",
          "name": "id",
          "type": "uint256"
        },
        {
          "internalType": "string",
          "name": "model",
          "type": "string"
        },
        {
          "internalType": "uint256",
          "name": "pricePerDay",
          "type": "uint256"
        },
        {
          "internalType": "bool",
          "name": "isAvailable",
          "type": "bool"
        },
        {
          "internalType": "address",
          "name": "renter",
          "type": "address"
        }
      ],
      "stateMutability": "view",
      "type": "function",
      "constant": true
    },
    {
      "inputs": [],
      "name": "nextCarId",
      "outputs": [
        {
          "internalType": "uint256",
          "name": "",
          "type": "uint256"
        }
      ],
      "stateMutability": "view",
      "type": "function",
      "constant": true
    },
    {
      "inputs": [],
      "name": "owner",
      "outputs": [
        {
          "internalType": "address",
          "name": "",
          "type": "address"
        }
      ],
      "stateMutability": "view",
      "type": "function",
      "constant": true
    },
    {
      "inputs": [
        {
          "internalType": "string",
          "name": "model",
          "type": "string"
        },
        {
          "internalType": "uint256",
          "name": "pricePerDay",
          "type": "uint256"
        }
      ],
      "name": "addCar",
      "outputs": [],
      "stateMutability": "nonpayable",
      "type": "function"
    },
    {
      "inputs": [
        {
          "internalType": "uint256",
          "name": "carId",
          "type": "uint256"
        },
        {
          "internalType": "uint256",
          "name": "numberOfDays",
          "type": "uint256"
        }
      ],
      "name": "rentCar",
      "outputs": [],
      "stateMutability": "payable",
      "type": "function",
      "payable": true
    },
    {
      "inputs": [
        {
          "internalType": "uint256",
          "name": "carId",
          "type": "uint256"
        }
      ],
      "name": "returnCar",
      "outputs": [],
      "stateMutability": "nonpayable",
      "type": "function"
    },
    {
      "inputs": [
        {
          "internalType": "uint256",
          "name": "carId",
          "type": "uint256"
        }
      ],
      "name": "getCar",
      "outputs": [
        {
          "components": [
            {
              "internalType": "uint256",
              "name": "id",
              "type": "uint256"
            },
            {
              "internalType": "string",
              "name": "model",
              "type": "string"
            },
            {
              "internalType": "uint256",
              "name": "pricePerDay",
              "type": "uint256"
            },
            {
              "internalType": "bool",
              "name": "isAvailable",
              "type": "bool"
            },
            {
              "internalType": "address",
              "name": "renter",
              "type": "address"
            }
          ],
          "internalType": "struct CarRental.Car",
          "name": "",
          "type": "tuple"
        }
      ],
      "stateMutability": "view",
      "type": "function",
      "constant": true
    },
    {
      "inputs": [],
      "name": "withdraw",
      "outputs": [],
      "stateMutability": "nonpayable",
      "type": "function"
    }
  ],
  "bytecode": "0x60806040526001805534801561001457600080fd5b50336000806101000a81548173ffffffffffffffffffffffffffffffffffffffff021916908373ffffffffffffffffffffffffffffffffffffffff1602179055506114fb806100646000396000f3fe60806040526004361061007b5760003560e01c80638da5cb5b1161004e5780638da5cb5b14610128578063965ac0c5146101535780639ca0fc0d1461017c578063f7746e36146101985761007b565b806317f956e0146100805780633ccfd60b146100a95780635e8be190146100c05780638c8bfa06146100fd575b600080fd5b34801561008c57600080fd5b506100a760048036038101906100a29190610a48565b6101d9565b005b3480156100b557600080fd5b506100be610334565b005b3480156100cc57600080fd5b506100e760048036038101906100e29190610a48565b61042b565b6040516100f49190610be6565b60405180910390f35b34801561010957600080fd5b5061011261056f565b60405161011f9190610c17565b60405180910390f35b34801561013457600080fd5b5061013d610575565b60405161014a9190610c41565b60405180910390f35b34801561015f57600080fd5b5061017a60048036038101906101759190610d91565b610599565b005b61019660048036038101906101919190610ded565b61076c565b005b3480156101a457600080fd5b506101bf60048036038101906101ba9190610a48565b6108cc565b6040516101d0959493929190610e86565b60405180910390f35b803373ffffffffffffffffffffffffffffffffffffffff166002600083815260200190815260200160002060030160019054906101000a900473ffffffffffffffffffffffffffffffffffffffff1673ffffffffffffffffffffffffffffffffffffffff161461027e576040517f08c379a000000000000000000000000000000000000000000000000000000000815260040161027590610f2c565b60405180910390fd5b600060026000848152602001908152602001600020905060018160030160006101000a81548160ff02191690831515021790555060008160030160016101000a81548173ffffffffffffffffffffffffffffffffffffffff021916908373ffffffffffffffffffffffffffffffffffffffff1602179055507fc0de8d61eb21cbee172fbd668a1694aaadbe1e0cd72b19a7471fdae993be2e788333604051610327929190610f4c565b60405180910390a1505050565b60008054906101000a900473ffffffffffffffffffffffffffffffffffffffff1673ffffffffffffffffffffffffffffffffffffffff163373ffffffffffffffffffffffffffffffffffffffff16146103c2576040517f08c379a00000000000000000000000000000000000000000000000000000000081526004016103b990610fc1565b60405180910390fd5b60008054906101000a900473ffffffffffffffffffffffffffffffffffffffff1673ffffffffffffffffffffffffffffffffffffffff166108fc479081150290604051600060405180830381858888f19350505050158015610428573d6000803e3d6000fd5b50565b6104336109b7565b600260008381526020019081526020016000206040518060a00160405290816000820154815260200160018201805461046b90611010565b80601f016020809104026020016040519081016040528092919081815260200182805461049790611010565b80156104e45780601f106104b9576101008083540402835291602001916104e4565b820191906000526020600020905b8154815290600101906020018083116104c757829003601f168201915b50505050508152602001600282015481526020016003820160009054906101000a900460ff161515151581526020016003820160019054906101000a900473ffffffffffffffffffffffffffffffffffffffff1673ffffffffffffffffffffffffffffffffffffffff1673ffffffffffffffffffffffffffffffffffffffff16815250509050919050565b60015481565b60008054906101000a900473ffffffffffffffffffffffffffffffffffffffff1681565b60008054906101000a900473ffffffffffffffffffffffffffffffffffffffff1673ffffffffffffffffffffffffffffffffffffffff163373ffffffffffffffffffffffffffffffffffffffff1614610627576040517f08c379a000000000000000000000000000000000000000000000000000000000815260040161061e90610fc1565b60405180910390fd5b6040518060a001604052806001548152602001838152602001828152602001600115158152602001600073ffffffffffffffffffffffffffffffffffffffff1681525060026000600154815260200190815260200160002060008201518160000155602082015181600101908161069e91906111ed565b506040820151816002015560608201518160030160006101000a81548160ff02191690831515021790555060808201518160030160016101000a81548173ffffffffffffffffffffffffffffffffffffffff021916908373ffffffffffffffffffffffffffffffffffffffff1602179055509050507fc7e9162c67bcf36a9897d9c95466ec8a031fc9ba47d5a3989c060dd040c2c0156001548383604051610748939291906112bf565b60405180910390a1600160008154809291906107639061132c565b91905055505050565b60006002600084815260200190815260200160002090508060030160009054906101000a900460ff166107d4576040517f08c379a00000000000000000000000000000000000000000000000000000000081526004016107cb906113c0565b60405180910390fd5b60008282600201546107e691906113e0565b90508034101561082b576040517f08c379a00000000000000000000000000000000000000000000000000000000081526004016108229061146e565b60405180910390fd5b60008260030160006101000a81548160ff021916908315150217905550338260030160016101000a81548173ffffffffffffffffffffffffffffffffffffffff021916908373ffffffffffffffffffffffffffffffffffffffff1602179055507fe880d822f4bdb63368fee99cd4a95706e7c7fdf51c0d2edd68bb8f4d0ea0fe728433856040516108be9392919061148e565b60405180910390a150505050565b60026020528060005260406000206000915090508060000154908060010180546108f590611010565b80601f016020809104026020016040519081016040528092919081815260200182805461092190611010565b801561096e5780601f106109435761010080835404028352916020019161096e565b820191906000526020600020905b81548152906001019060200180831161095157829003601f168201915b5050505050908060020154908060030160009054906101000a900460ff16908060030160019054906101000a900473ffffffffffffffffffffffffffffffffffffffff16905085565b6040518060a00160405280600081526020016060815260200160008152602001600015158152602001600073ffffffffffffffffffffffffffffffffffffffff1681525090565b6000604051905090565b600080fd5b600080fd5b6000819050919050565b610a2581610a12565b8114610a3057600080fd5b50565b600081359050610a4281610a1c565b92915050565b600060208284031215610a5e57610a5d610a08565b5b6000610a6c84828501610a33565b91505092915050565b610a7e81610a12565b82525050565b600081519050919050565b600082825260208201905092915050565b60005b83811015610abe578082015181840152602081019050610aa3565b60008484015250505050565b6000601f19601f8301169050919050565b6000610ae682610a84565b610af08185610a8f565b9350610b00818560208601610aa0565b610b0981610aca565b840191505092915050565b60008115159050919050565b610b2981610b14565b82525050565b600073ffffffffffffffffffffffffffffffffffffffff82169050919050565b6000610b5a82610b2f565b9050919050565b610b6a81610b4f565b82525050565b600060a083016000830151610b886000860182610a75565b5060208301518482036020860152610ba08282610adb565b9150506040830151610bb56040860182610a75565b506060830151610bc86060860182610b20565b506080830151610bdb6080860182610b61565b508091505092915050565b60006020820190508181036000830152610c008184610b70565b905092915050565b610c1181610a12565b82525050565b6000602082019050610c2c6000830184610c08565b92915050565b610c3b81610b4f565b82525050565b6000602082019050610c566000830184610c32565b92915050565b600080fd5b600080fd5b7f4e487b7100000000000000000000000000000000000000000000000000000000600052604160045260246000fd5b610c9e82610aca565b810181811067ffffffffffffffff82111715610cbd57610cbc610c66565b5b80604052505050565b6000610cd06109fe565b9050610cdc8282610c95565b919050565b600067ffffffffffffffff821115610cfc57610cfb610c66565b5b610d0582610aca565b9050602081019050919050565b82818337600083830152505050565b6000610d34610d2f84610ce1565b610cc6565b905082815260208101848484011115610d5057610d4f610c61565b5b610d5b848285610d12565b509392505050565b600082601f830112610d7857610d77610c5c565b5b8135610d88848260208601610d21565b91505092915050565b60008060408385031215610da857610da7610a08565b5b600083013567ffffffffffffffff811115610dc657610dc5610a0d565b5b610dd285828601610d63565b9250506020610de385828601610a33565b9150509250929050565b60008060408385031215610e0457610e03610a08565b5b6000610e1285828601610a33565b9250506020610e2385828601610a33565b9150509250929050565b600082825260208201905092915050565b6000610e4982610a84565b610e538185610e2d565b9350610e63818560208601610aa0565b610e6c81610aca565b840191505092915050565b610e8081610b14565b82525050565b600060a082019050610e9b6000830188610c08565b8181036020830152610ead8187610e3e565b9050610ebc6040830186610c08565b610ec96060830185610e77565b610ed66080830184610c32565b9695505050505050565b7f596f75206469646e27742072656e742074686973206361720000000000000000600082015250565b6000610f16601883610e2d565b9150610f2182610ee0565b602082019050919050565b60006020820190508181036000830152610f4581610f09565b9050919050565b6000604082019050610f616000830185610c08565b610f6e6020830184610c32565b9392505050565b7f4f6e6c79206f776e65722063616e20646f207468697300000000000000000000600082015250565b6000610fab601683610e2d565b9150610fb682610f75565b602082019050919050565b60006020820190508181036000830152610fda81610f9e565b9050919050565b7f4e487b7100000000000000000000000000000000000000000000000000000000600052602260045260246000fd5b6000600282049050600182168061102857607f821691505b60208210810361103b5761103a610fe1565b5b50919050565b60008190508160005260206000209050919050565b60006020601f8301049050919050565b600082821b905092915050565b6000600883026110a37fffffffffffffffffffffffffffffffffffffffffffffffffffffffffffffffff82611066565b6110ad8683611066565b95508019841693508086168417925050509392505050565b6000819050919050565b60006110ea6110e56110e084610a12565b6110c5565b610a12565b9050919050565b6000819050919050565b611104836110cf565b611118611110826110f1565b848454611073565b825550505050565b600090565b61112d611120565b6111388184846110fb565b505050565b5b8181101561115c57611151600082611125565b60018101905061113e565b5050565b601f8211156111a15761117281611041565b61117b84611056565b8101602085101561118a578190505b61119e61119685611056565b83018261113d565b50505b505050565b600082821c905092915050565b60006111c4600019846008026111a6565b1980831691505092915050565b60006111dd83836111b3565b9150826002028217905092915050565b6111f682610a84565b67ffffffffffffffff81111561120f5761120e610c66565b5b6112198254611010565b611224828285611160565b600060209050601f8311600181146112575760008415611245578287015190505b61124f85826111d1565b8655506112b7565b601f19841661126586611041565b60005b8281101561128d57848901518255600182019150602085019450602081019050611268565b868310156112aa57848901516112a6601f8916826111b3565b8355505b6001600288020188555050505b505050505050565b60006060820190506112d46000830186610c08565b81810360208301526112e68185610e3e565b90506112f56040830184610c08565b949350505050565b7f4e487b7100000000000000000000000000000000000000000000000000000000600052601160045260246000fd5b600061133782610a12565b91507fffffffffffffffffffffffffffffffffffffffffffffffffffffffffffffffff8203611369576113686112fd565b5b600182019050919050565b7f436172206e6f7420617661696c61626c65000000000000000000000000000000600082015250565b60006113aa601183610e2d565b91506113b582611374565b602082019050919050565b600060208201905081810360008301526113d98161139d565b9050919050565b60006113eb82610a12565b91506113f683610a12565b925082820261140481610a12565b9150828204841483151761141b5761141a6112fd565b5b5092915050565b7f4e6f7420656e6f756768204554482073656e7400000000000000000000000000600082015250565b6000611458601383610e2d565b915061146382611422565b602082019050919050565b600060208201905081810360008301526114878161144b565b9050919050565b60006060820190506114a36000830186610c08565b6114b06020830185610c32565b6114bd6040830184610c08565b94935050505056fea2646970667358221220f1c1c6ac9ea0c367ba11da0f670c6b8c1b6d88cd9583119b0008b26083edea5764736f6c63430008130033",
  "immutableReferences": {},
  "source": "// SPDX-License-Identifier: MIT\npragma solidity ^0.8.19;\n\ncontract CarRental {\n    address public owner;\n\n    constructor() {\n        owner = msg.sender;\n    }\n\n    struct Car {\n        uint256 id;\n        string model;\n        uint256 pricePerDay;\n        bool isAvailable;\n        address renter;\n    }\n\n    uint256 public nextCarId = 1;\n    mapping(uint256 => Car) public cars;\n\n    event CarAdded(uint256 carId, string model, uint256 pricePerDay);\n    event CarRented(uint256 carId, address renter, uint256 daysRented);\n    event CarReturned(uint256 carId, address renter);\n\n    modifier onlyOwner() {\n        require(msg.sender == owner, \"Only owner can do this\");\n        _;\n    }\n\n    modifier onlyRenter(uint256 carId) {\n        require(cars[carId].renter == msg.sender, \"You didn't rent this car\");\n        _;\n    }\n\n    function addCar(string memory model, uint256 pricePerDay) public onlyOwner {\n        cars[nextCarId] = Car(nextCarId, model, pricePerDay, true, address(0));\n        emit CarAdded(nextCarId, model, pricePerDay);\n        nextCarId++;\n    }\n\n    function rentCar(uint256 carId, uint256 numberOfDays) public payable {\n        Car storage car = cars[carId];\n        require(car.isAvailable, \"Car not available\");\n        uint256 totalCost = car.pricePerDay * numberOfDays;\n        require(msg.value >= totalCost, \"Not enough ETH sent\");\n\n        car.isAvailable = false;\n        car.renter = msg.sender;\n\n        emit CarRented(carId, msg.sender, numberOfDays);\n    }\n\n    function returnCar(uint256 carId) public onlyRenter(carId) {\n        Car storage car = cars[carId];\n        car.isAvailable = true;\n        car.renter = address(0);\n\n        emit CarReturned(carId, msg.sender);\n    }\n\n    function getCar(uint256 carId) public view returns (Car memory) {\n        return cars[carId];\n    }\n\n    function withdraw() public onlyOwner {\n        payable(owner).transfer(address(this).balance);\n    }\n}\n",
  "sourcePath": "/Users/mikewegele/source/fu/semester3/smart-contract/smart-contract-vehicle/blockchain/contracts/CarRental.sol",
  "compiler": {
    "name": "solc",
    "version": "0.8.19+commit.7dd6d404.Emscripten.clang"
  },
  "schemaVersion": "3.4.16",
  "updatedAt": "2025-06-04T16:55:01.282Z",
  "networkType": "ethereum",
  "devdoc": {
    "kind": "dev",
    "methods": {},
    "version": 1
  },
  "userdoc": {
    "kind": "user",
    "methods": {},
    "version": 1
  }
}