{
  "contractName": "SimpleCarRental",
  "abi": [
    {
      "anonymous": false,
      "inputs": [
        {
          "indexed": false,
          "internalType": "string",
          "name": "carId",
          "type": "string"
        },
        {
          "indexed": true,
          "internalType": "address",
          "name": "renter",
          "type": "address"
        },
        {
          "indexed": false,
          "internalType": "string",
          "name": "userId",
          "type": "string"
        },
        {
          "indexed": false,
          "internalType": "uint256",
          "name": "pricePerMinute",
          "type": "uint256"
        },
        {
          "indexed": false,
          "internalType": "uint256",
          "name": "totalPrice",
          "type": "uint256"
        },
        {
          "indexed": false,
          "internalType": "uint256",
          "name": "timestamp",
          "type": "uint256"
        }
      ],
      "name": "CarRented",
      "type": "event"
    },
    {
      "inputs": [
        {
          "internalType": "string",
          "name": "carId",
          "type": "string"
        },
        {
          "internalType": "string",
          "name": "userId",
          "type": "string"
        },
        {
          "internalType": "uint256",
          "name": "pricePerMinute",
          "type": "uint256"
        }
      ],
      "name": "rentCar",
      "outputs": [],
      "stateMutability": "payable",
      "type": "function"
    },
    {
      "inputs": [],
      "name": "helloWorld",
      "outputs": [
        {
          "internalType": "string",
          "name": "",
          "type": "string"
        }
      ],
      "stateMutability": "pure",
      "type": "function"
    }
  ],
  "bytecode": "0x608060405234801561001057600080fd5b5061060d806100206000396000f3fe6080604052600436106100295760003560e01c80639713bedc1461002e578063c605f76c1461004a575b600080fd5b610048600480360381019061004391906102fe565b610075565b005b34801561005657600080fd5b5061005f610131565b60405161006c9190610408565b60405180910390f35b6000600f6002836100869190610488565b61009091906104b9565b9050803410156100d5576040517f08c379a00000000000000000000000000000000000000000000000000000000081526004016100cc90610547565b60405180910390fd5b3373ffffffffffffffffffffffffffffffffffffffff167fcc30bd5d68975c3771d6de807025e26bf19ba256941deec2458f8bfa7736914d8585858542604051610123959493929190610576565b60405180910390a250505050565b60606040518060400160405280600d81526020017f48656c6c6f2c20776f726c642100000000000000000000000000000000000000815250905090565b6000604051905090565b600080fd5b600080fd5b600080fd5b600080fd5b6000601f19601f8301169050919050565b7f4e487b7100000000000000000000000000000000000000000000000000000000600052604160045260246000fd5b6101d58261018c565b810181811067ffffffffffffffff821117156101f4576101f361019d565b5b80604052505050565b600061020761016e565b905061021382826101cc565b919050565b600067ffffffffffffffff8211156102335761023261019d565b5b61023c8261018c565b9050602081019050919050565b82818337600083830152505050565b600061026b61026684610218565b6101fd565b90508281526020810184848401111561028757610286610187565b5b610292848285610249565b509392505050565b600082601f8301126102af576102ae610182565b5b81356102bf848260208601610258565b91505092915050565b6000819050919050565b6102db816102c8565b81146102e657600080fd5b50565b6000813590506102f8816102d2565b92915050565b60008060006060848603121561031757610316610178565b5b600084013567ffffffffffffffff8111156103355761033461017d565b5b6103418682870161029a565b935050602084013567ffffffffffffffff8111156103625761036161017d565b5b61036e8682870161029a565b925050604061037f868287016102e9565b9150509250925092565b600081519050919050565b600082825260208201905092915050565b60005b838110156103c35780820151818401526020810190506103a8565b60008484015250505050565b60006103da82610389565b6103e48185610394565b93506103f48185602086016103a5565b6103fd8161018c565b840191505092915050565b6000602082019050818103600083015261042281846103cf565b905092915050565b7f4e487b7100000000000000000000000000000000000000000000000000000000600052601260045260246000fd5b7f4e487b7100000000000000000000000000000000000000000000000000000000600052601160045260246000fd5b6000610493826102c8565b915061049e836102c8565b9250826104ae576104ad61042a565b5b828204905092915050565b60006104c4826102c8565b91506104cf836102c8565b92508282026104dd816102c8565b915082820484148315176104f4576104f3610459565b5b5092915050565b7f4e6f7420656e6f7567682045746865722073656e740000000000000000000000600082015250565b6000610531601583610394565b915061053c826104fb565b602082019050919050565b6000602082019050818103600083015261056081610524565b9050919050565b610570816102c8565b82525050565b600060a082019050818103600083015261059081886103cf565b905081810360208301526105a481876103cf565b90506105b36040830186610567565b6105c06060830185610567565b6105cd6080830184610567565b969550505050505056fea2646970667358221220a4cd08b8dd520fffd5374ebbbaa58d54136addde34b6ac0d9e6727b1a382b6a964736f6c63430008130033",
  "immutableReferences": {},
  "source": "// SPDX-License-Identifier: MIT\npragma solidity ^0.8.19;\n\ncontract SimpleCarRental {\n\n    event CarRented(\n        string carId,\n        address indexed renter,\n        string userId,\n        uint256 pricePerMinute,\n        uint256 totalPrice,\n        uint256 timestamp\n    );\n\n    function rentCar(\n        string memory carId,\n        string memory userId,\n        uint256 pricePerMinute\n    ) public payable {\n        uint256 totalPrice = (pricePerMinute / 2) * 15;\n        require(msg.value >= totalPrice, \"Not enough Ether sent\");\n\n        emit CarRented(\n            carId,\n            msg.sender,\n            userId,\n            pricePerMinute,\n            totalPrice,\n            block.timestamp\n        );\n    }\n\n    function helloWorld() public pure returns (string memory) {\n        return \"Hello, world!\";\n    }\n}\n",
  "sourcePath": "/Users/mikewegele/source/fu/semester3/smart-contract/smart-contract-vehicle/blockchain/contracts/CarRental.sol",
  "compiler": {
    "name": "solc",
    "version": "0.8.19+commit.7dd6d404.Emscripten.clang"
  },
  "schemaVersion": "3.4.16",
  "updatedAt": "2025-06-16T15:01:33.163Z",
  "devdoc": {
    "kind": "dev",
    "methods": {},
    "version": 1
  },
  "userdoc": {
    "kind": "user",
    "methods": {},
    "version": 1
  }
}