{
  "contractName": "SimpleCarRental",
  "abi": [
    {
      "inputs": [],
      "stateMutability": "nonpayable",
      "type": "constructor"
    },
    {
      "anonymous": false,
      "inputs": [
        {
          "indexed": false,
          "internalType": "uint256",
          "name": "carId",
          "type": "uint256"
        },
        {
          "indexed": false,
          "internalType": "string",
          "name": "model",
          "type": "string"
        },
        {
          "indexed": false,
          "internalType": "uint256",
          "name": "pricePerDay",
          "type": "uint256"
        }
      ],
      "name": "CarAdded",
      "type": "event"
    },
    {
      "anonymous": false,
      "inputs": [
        {
          "indexed": false,
          "internalType": "uint256",
          "name": "carId",
          "type": "uint256"
        },
        {
          "indexed": false,
          "internalType": "address",
          "name": "renter",
          "type": "address"
        },
        {
          "indexed": false,
          "internalType": "uint256",
          "name": "daysRented",
          "type": "uint256"
        }
      ],
      "name": "CarRented",
      "type": "event"
    },
    {
      "anonymous": false,
      "inputs": [
        {
          "indexed": false,
          "internalType": "uint256",
          "name": "carId",
          "type": "uint256"
        },
        {
          "indexed": false,
          "internalType": "address",
          "name": "renter",
          "type": "address"
        }
      ],
      "name": "CarReturned",
      "type": "event"
    },
    {
      "inputs": [
        {
          "internalType": "uint256",
          "name": "",
          "type": "uint256"
        }
      ],
      "name": "cars",
      "outputs": [
        {
          "internalType": "uint256",
          "name": "id",
          "type": "uint256"
        },
        {
          "internalType": "string",
          "name": "model",
          "type": "string"
        },
        {
          "internalType": "uint256",
          "name": "pricePerDay",
          "type": "uint256"
        },
        {
          "internalType": "bool",
          "name": "isAvailable",
          "type": "bool"
        },
        {
          "internalType": "address",
          "name": "renter",
          "type": "address"
        }
      ],
      "stateMutability": "view",
      "type": "function"
    },
    {
      "inputs": [],
      "name": "nextCarId",
      "outputs": [
        {
          "internalType": "uint256",
          "name": "",
          "type": "uint256"
        }
      ],
      "stateMutability": "view",
      "type": "function"
    },
    {
      "inputs": [],
      "name": "owner",
      "outputs": [
        {
          "internalType": "address",
          "name": "",
          "type": "address"
        }
      ],
      "stateMutability": "view",
      "type": "function"
    },
    {
      "inputs": [],
      "name": "helloWorld",
      "outputs": [
        {
          "internalType": "string",
          "name": "",
          "type": "string"
        }
      ],
      "stateMutability": "pure",
      "type": "function"
    },
    {
      "inputs": [
        {
          "internalType": "string",
          "name": "model",
          "type": "string"
        },
        {
          "internalType": "uint256",
          "name": "pricePerDay",
          "type": "uint256"
        }
      ],
      "name": "addCar",
      "outputs": [],
      "stateMutability": "nonpayable",
      "type": "function"
    },
    {
      "inputs": [
        {
          "internalType": "uint256",
          "name": "carId",
          "type": "uint256"
        },
        {
          "internalType": "uint256",
          "name": "numberOfDays",
          "type": "uint256"
        }
      ],
      "name": "rentCar",
      "outputs": [],
      "stateMutability": "payable",
      "type": "function"
    },
    {
      "inputs": [
        {
          "internalType": "uint256",
          "name": "carId",
          "type": "uint256"
        }
      ],
      "name": "returnCar",
      "outputs": [],
      "stateMutability": "nonpayable",
      "type": "function"
    },
    {
      "inputs": [
        {
          "internalType": "uint256",
          "name": "carId",
          "type": "uint256"
        }
      ],
      "name": "getCar",
      "outputs": [
        {
          "components": [
            {
              "internalType": "uint256",
              "name": "id",
              "type": "uint256"
            },
            {
              "internalType": "string",
              "name": "model",
              "type": "string"
            },
            {
              "internalType": "uint256",
              "name": "pricePerDay",
              "type": "uint256"
            },
            {
              "internalType": "bool",
              "name": "isAvailable",
              "type": "bool"
            },
            {
              "internalType": "address",
              "name": "renter",
              "type": "address"
            }
          ],
          "internalType": "struct SimpleCarRental.Car",
          "name": "",
          "type": "tuple"
        }
      ],
      "stateMutability": "view",
      "type": "function"
    },
    {
      "inputs": [],
      "name": "withdraw",
      "outputs": [],
      "stateMutability": "nonpayable",
      "type": "function"
    }
  ],
  "bytecode": "0x60806040526001805534801561001457600080fd5b50336000806101000a81548173ffffffffffffffffffffffffffffffffffffffff021916908373ffffffffffffffffffffffffffffffffffffffff160217905550611133806100646000396000f3fe6080604052600436106100865760003560e01c80638da5cb5b116100595780638da5cb5b14610133578063965ac0c51461015e5780639ca0fc0d14610187578063c605f76c146101a3578063f7746e36146101ce57610086565b806317f956e01461008b5780633ccfd60b146100b45780635e8be190146100cb5780638c8bfa0614610108575b600080fd5b34801561009757600080fd5b506100b260048036038101906100ad9190610850565b61020f565b005b3480156100c057600080fd5b506100c96102c4565b005b3480156100d757600080fd5b506100f260048036038101906100ed9190610850565b61032d565b6040516100ff91906109ee565b60405180910390f35b34801561011457600080fd5b5061011d610471565b60405161012a9190610a1f565b60405180910390f35b34801561013f57600080fd5b50610148610477565b6040516101559190610a49565b60405180910390f35b34801561016a57600080fd5b5061018560048036038101906101809190610b99565b61049b565b005b6101a1600480360381019061019c9190610bf5565b6105e0565b005b3480156101af57600080fd5b506101b8610697565b6040516101c59190610c7f565b60405180910390f35b3480156101da57600080fd5b506101f560048036038101906101f09190610850565b6106d4565b604051610206959493929190610cb0565b60405180910390f35b600060026000838152602001908152602001600020905060018160030160006101000a81548160ff02191690831515021790555060008160030160016101000a81548173ffffffffffffffffffffffffffffffffffffffff021916908373ffffffffffffffffffffffffffffffffffffffff1602179055507fc0de8d61eb21cbee172fbd668a1694aaadbe1e0cd72b19a7471fdae993be2e7882336040516102b8929190610d0a565b60405180910390a15050565b60008054906101000a900473ffffffffffffffffffffffffffffffffffffffff1673ffffffffffffffffffffffffffffffffffffffff166108fc479081150290604051600060405180830381858888f1935050505015801561032a573d6000803e3d6000fd5b50565b6103356107bf565b600260008381526020019081526020016000206040518060a00160405290816000820154815260200160018201805461036d90610d62565b80601f016020809104026020016040519081016040528092919081815260200182805461039990610d62565b80156103e65780601f106103bb576101008083540402835291602001916103e6565b820191906000526020600020905b8154815290600101906020018083116103c957829003601f168201915b50505050508152602001600282015481526020016003820160009054906101000a900460ff161515151581526020016003820160019054906101000a900473ffffffffffffffffffffffffffffffffffffffff1673ffffffffffffffffffffffffffffffffffffffff1673ffffffffffffffffffffffffffffffffffffffff16815250509050919050565b60015481565b60008054906101000a900473ffffffffffffffffffffffffffffffffffffffff1681565b6040518060a001604052806001548152602001838152602001828152602001600115158152602001600073ffffffffffffffffffffffffffffffffffffffff168152506002600060015481526020019081526020016000206000820151816000015560208201518160010190816105129190610f3f565b506040820151816002015560608201518160030160006101000a81548160ff02191690831515021790555060808201518160030160016101000a81548173ffffffffffffffffffffffffffffffffffffffff021916908373ffffffffffffffffffffffffffffffffffffffff1602179055509050507fc7e9162c67bcf36a9897d9c95466ec8a031fc9ba47d5a3989c060dd040c2c01560015483836040516105bc93929190611011565b60405180910390a1600160008154809291906105d79061107e565b91905055505050565b600060026000848152602001908152602001600020905060008160030160006101000a81548160ff021916908315150217905550338160030160016101000a81548173ffffffffffffffffffffffffffffffffffffffff021916908373ffffffffffffffffffffffffffffffffffffffff1602179055507fe880d822f4bdb63368fee99cd4a95706e7c7fdf51c0d2edd68bb8f4d0ea0fe7283338460405161068a939291906110c6565b60405180910390a1505050565b60606040518060400160405280600d81526020017f48656c6c6f2c20776f726c642100000000000000000000000000000000000000815250905090565b60026020528060005260406000206000915090508060000154908060010180546106fd90610d62565b80601f016020809104026020016040519081016040528092919081815260200182805461072990610d62565b80156107765780601f1061074b57610100808354040283529160200191610776565b820191906000526020600020905b81548152906001019060200180831161075957829003601f168201915b5050505050908060020154908060030160009054906101000a900460ff16908060030160019054906101000a900473ffffffffffffffffffffffffffffffffffffffff16905085565b6040518060a00160405280600081526020016060815260200160008152602001600015158152602001600073ffffffffffffffffffffffffffffffffffffffff1681525090565b6000604051905090565b600080fd5b600080fd5b6000819050919050565b61082d8161081a565b811461083857600080fd5b50565b60008135905061084a81610824565b92915050565b60006020828403121561086657610865610810565b5b60006108748482850161083b565b91505092915050565b6108868161081a565b82525050565b600081519050919050565b600082825260208201905092915050565b60005b838110156108c65780820151818401526020810190506108ab565b60008484015250505050565b6000601f19601f8301169050919050565b60006108ee8261088c565b6108f88185610897565b93506109088185602086016108a8565b610911816108d2565b840191505092915050565b60008115159050919050565b6109318161091c565b82525050565b600073ffffffffffffffffffffffffffffffffffffffff82169050919050565b600061096282610937565b9050919050565b61097281610957565b82525050565b600060a083016000830151610990600086018261087d565b50602083015184820360208601526109a882826108e3565b91505060408301516109bd604086018261087d565b5060608301516109d06060860182610928565b5060808301516109e36080860182610969565b508091505092915050565b60006020820190508181036000830152610a088184610978565b905092915050565b610a198161081a565b82525050565b6000602082019050610a346000830184610a10565b92915050565b610a4381610957565b82525050565b6000602082019050610a5e6000830184610a3a565b92915050565b600080fd5b600080fd5b7f4e487b7100000000000000000000000000000000000000000000000000000000600052604160045260246000fd5b610aa6826108d2565b810181811067ffffffffffffffff82111715610ac557610ac4610a6e565b5b80604052505050565b6000610ad8610806565b9050610ae48282610a9d565b919050565b600067ffffffffffffffff821115610b0457610b03610a6e565b5b610b0d826108d2565b9050602081019050919050565b82818337600083830152505050565b6000610b3c610b3784610ae9565b610ace565b905082815260208101848484011115610b5857610b57610a69565b5b610b63848285610b1a565b509392505050565b600082601f830112610b8057610b7f610a64565b5b8135610b90848260208601610b29565b91505092915050565b60008060408385031215610bb057610baf610810565b5b600083013567ffffffffffffffff811115610bce57610bcd610815565b5b610bda85828601610b6b565b9250506020610beb8582860161083b565b9150509250929050565b60008060408385031215610c0c57610c0b610810565b5b6000610c1a8582860161083b565b9250506020610c2b8582860161083b565b9150509250929050565b600082825260208201905092915050565b6000610c518261088c565b610c5b8185610c35565b9350610c6b8185602086016108a8565b610c74816108d2565b840191505092915050565b60006020820190508181036000830152610c998184610c46565b905092915050565b610caa8161091c565b82525050565b600060a082019050610cc56000830188610a10565b8181036020830152610cd78187610c46565b9050610ce66040830186610a10565b610cf36060830185610ca1565b610d006080830184610a3a565b9695505050505050565b6000604082019050610d1f6000830185610a10565b610d2c6020830184610a3a565b9392505050565b7f4e487b7100000000000000000000000000000000000000000000000000000000600052602260045260246000fd5b60006002820490506001821680610d7a57607f821691505b602082108103610d8d57610d8c610d33565b5b50919050565b60008190508160005260206000209050919050565b60006020601f8301049050919050565b600082821b905092915050565b600060088302610df57fffffffffffffffffffffffffffffffffffffffffffffffffffffffffffffffff82610db8565b610dff8683610db8565b95508019841693508086168417925050509392505050565b6000819050919050565b6000610e3c610e37610e328461081a565b610e17565b61081a565b9050919050565b6000819050919050565b610e5683610e21565b610e6a610e6282610e43565b848454610dc5565b825550505050565b600090565b610e7f610e72565b610e8a818484610e4d565b505050565b5b81811015610eae57610ea3600082610e77565b600181019050610e90565b5050565b601f821115610ef357610ec481610d93565b610ecd84610da8565b81016020851015610edc578190505b610ef0610ee885610da8565b830182610e8f565b50505b505050565b600082821c905092915050565b6000610f1660001984600802610ef8565b1980831691505092915050565b6000610f2f8383610f05565b9150826002028217905092915050565b610f488261088c565b67ffffffffffffffff811115610f6157610f60610a6e565b5b610f6b8254610d62565b610f76828285610eb2565b600060209050601f831160018114610fa95760008415610f97578287015190505b610fa18582610f23565b865550611009565b601f198416610fb786610d93565b60005b82811015610fdf57848901518255600182019150602085019450602081019050610fba565b86831015610ffc5784890151610ff8601f891682610f05565b8355505b6001600288020188555050505b505050505050565b60006060820190506110266000830186610a10565b81810360208301526110388185610c46565b90506110476040830184610a10565b949350505050565b7f4e487b7100000000000000000000000000000000000000000000000000000000600052601160045260246000fd5b60006110898261081a565b91507fffffffffffffffffffffffffffffffffffffffffffffffffffffffffffffffff82036110bb576110ba61104f565b5b600182019050919050565b60006060820190506110db6000830186610a10565b6110e86020830185610a3a565b6110f56040830184610a10565b94935050505056fea2646970667358221220456d42eb6367e66bb4037d0dc93f664fd39bc5d0c11eefe74ef349402d2ae7d164736f6c63430008130033",
  "immutableReferences": {},
  "source": "// SPDX-License-Identifier: MIT\npragma solidity ^0.8.19;\n\ncontract SimpleCarRental {\n    address public owner;\n\n    constructor() {\n        owner = msg.sender;\n    }\n\n    struct Car {\n        uint256 id;\n        string model;\n        uint256 pricePerDay;\n        bool isAvailable;\n        address renter;\n    }\n\n    uint256 public nextCarId = 1;\n    mapping(uint256 => Car) public cars;\n\n    event CarAdded(uint256 carId, string model, uint256 pricePerDay);\n    event CarRented(uint256 carId, address renter, uint256 daysRented);\n    event CarReturned(uint256 carId, address renter);\n\n     function helloWorld() public pure returns (string memory) {\n            return \"Hello, world!\";\n        }\n\n    function addCar(string memory model, uint256 pricePerDay) public {\n        cars[nextCarId] = Car(nextCarId, model, pricePerDay, true, address(0));\n        emit CarAdded(nextCarId, model, pricePerDay);\n        nextCarId++;\n    }\n\n    function rentCar(uint256 carId, uint256 numberOfDays) public payable {\n        Car storage car = cars[carId];\n        car.isAvailable = false;\n        car.renter = msg.sender;\n        emit CarRented(carId, msg.sender, numberOfDays);\n    }\n\n    function returnCar(uint256 carId) public {\n        Car storage car = cars[carId];\n        car.isAvailable = true;\n        car.renter = address(0);\n        emit CarReturned(carId, msg.sender);\n    }\n\n    function getCar(uint256 carId) public view returns (Car memory) {\n        return cars[carId];\n    }\n\n    function withdraw() public {\n        payable(owner).transfer(address(this).balance);\n    }\n}\n",
  "sourcePath": "/Users/mikewegele/source/fu/semester3/smart-contract/smart-contract-vehicle/blockchain/contracts/CarRental.sol",
  "compiler": {
    "name": "solc",
    "version": "0.8.19+commit.7dd6d404.Emscripten.clang"
  },
  "schemaVersion": "3.4.16",
  "updatedAt": "2025-06-10T10:30:31.078Z",
  "devdoc": {
    "kind": "dev",
    "methods": {},
    "version": 1
  },
  "userdoc": {
    "kind": "user",
    "methods": {},
    "version": 1
  }
}