{
  "contractName": "SimpleCarRental",
  "abi": [
    {
      "anonymous": false,
      "inputs": [
        {
          "indexed": false,
          "internalType": "uint256",
          "name": "carId",
          "type": "uint256"
        },
        {
          "indexed": false,
          "internalType": "string",
          "name": "model",
          "type": "string"
        },
        {
          "indexed": false,
          "internalType": "uint256",
          "name": "pricePerDay",
          "type": "uint256"
        }
      ],
      "name": "CarAdded",
      "type": "event"
    },
    {
      "anonymous": false,
      "inputs": [
        {
          "indexed": false,
          "internalType": "uint256",
          "name": "carId",
          "type": "uint256"
        },
        {
          "indexed": false,
          "internalType": "address",
          "name": "renter",
          "type": "address"
        },
        {
          "indexed": false,
          "internalType": "uint256",
          "name": "daysRented",
          "type": "uint256"
        }
      ],
      "name": "CarRented",
      "type": "event"
    },
    {
      "anonymous": false,
      "inputs": [
        {
          "indexed": false,
          "internalType": "uint256",
          "name": "carId",
          "type": "uint256"
        },
        {
          "indexed": false,
          "internalType": "address",
          "name": "renter",
          "type": "address"
        }
      ],
      "name": "CarReturned",
      "type": "event"
    },
    {
      "inputs": [
        {
          "internalType": "uint256",
          "name": "",
          "type": "uint256"
        }
      ],
      "name": "cars",
      "outputs": [
        {
          "internalType": "uint256",
          "name": "id",
          "type": "uint256"
        },
        {
          "internalType": "string",
          "name": "model",
          "type": "string"
        },
        {
          "internalType": "uint256",
          "name": "pricePerDay",
          "type": "uint256"
        },
        {
          "internalType": "bool",
          "name": "isAvailable",
          "type": "bool"
        },
        {
          "internalType": "address",
          "name": "renter",
          "type": "address"
        }
      ],
      "stateMutability": "view",
      "type": "function"
    },
    {
      "inputs": [],
      "name": "nextCarId",
      "outputs": [
        {
          "internalType": "uint256",
          "name": "",
          "type": "uint256"
        }
      ],
      "stateMutability": "view",
      "type": "function"
    },
    {
      "inputs": [],
      "name": "helloWorld",
      "outputs": [
        {
          "internalType": "string",
          "name": "",
          "type": "string"
        }
      ],
      "stateMutability": "pure",
      "type": "function"
    },
    {
      "inputs": [
        {
          "internalType": "string",
          "name": "model",
          "type": "string"
        },
        {
          "internalType": "uint256",
          "name": "pricePerDay",
          "type": "uint256"
        }
      ],
      "name": "addCar",
      "outputs": [],
      "stateMutability": "nonpayable",
      "type": "function"
    },
    {
      "inputs": [
        {
          "internalType": "uint256",
          "name": "carId",
          "type": "uint256"
        },
        {
          "internalType": "uint256",
          "name": "numberOfDays",
          "type": "uint256"
        }
      ],
      "name": "rentCar",
      "outputs": [],
      "stateMutability": "payable",
      "type": "function"
    },
    {
      "inputs": [
        {
          "internalType": "uint256",
          "name": "carId",
          "type": "uint256"
        }
      ],
      "name": "returnCar",
      "outputs": [],
      "stateMutability": "nonpayable",
      "type": "function"
    },
    {
      "inputs": [
        {
          "internalType": "uint256",
          "name": "carId",
          "type": "uint256"
        }
      ],
      "name": "getCar",
      "outputs": [
        {
          "components": [
            {
              "internalType": "uint256",
              "name": "id",
              "type": "uint256"
            },
            {
              "internalType": "string",
              "name": "model",
              "type": "string"
            },
            {
              "internalType": "uint256",
              "name": "pricePerDay",
              "type": "uint256"
            },
            {
              "internalType": "bool",
              "name": "isAvailable",
              "type": "bool"
            },
            {
              "internalType": "address",
              "name": "renter",
              "type": "address"
            }
          ],
          "internalType": "struct SimpleCarRental.Car",
          "name": "",
          "type": "tuple"
        }
      ],
      "stateMutability": "view",
      "type": "function"
    }
  ],
  "bytecode": "0x6080604052600160005534801561001557600080fd5b50611031806100256000396000f3fe6080604052600436106100705760003560e01c8063965ac0c51161004e578063965ac0c5146101065780639ca0fc0d1461012f578063c605f76c1461014b578063f7746e361461017657610070565b806317f956e0146100755780635e8be1901461009e5780638c8bfa06146100db575b600080fd5b34801561008157600080fd5b5061009c60048036038101906100979190610769565b6101b7565b005b3480156100aa57600080fd5b506100c560048036038101906100c09190610769565b61026c565b6040516100d29190610907565b60405180910390f35b3480156100e757600080fd5b506100f06103b0565b6040516100fd9190610938565b60405180910390f35b34801561011257600080fd5b5061012d60048036038101906101289190610a88565b6103b6565b005b61014960048036038101906101449190610ae4565b6104f9565b005b34801561015757600080fd5b506101606105b0565b60405161016d9190610b6e565b60405180910390f35b34801561018257600080fd5b5061019d60048036038101906101989190610769565b6105ed565b6040516101ae959493929190610bae565b60405180910390f35b600060016000838152602001908152602001600020905060018160030160006101000a81548160ff02191690831515021790555060008160030160016101000a81548173ffffffffffffffffffffffffffffffffffffffff021916908373ffffffffffffffffffffffffffffffffffffffff1602179055507fc0de8d61eb21cbee172fbd668a1694aaadbe1e0cd72b19a7471fdae993be2e788233604051610260929190610c08565b60405180910390a15050565b6102746106d8565b600160008381526020019081526020016000206040518060a0016040529081600082015481526020016001820180546102ac90610c60565b80601f01602080910402602001604051908101604052809291908181526020018280546102d890610c60565b80156103255780601f106102fa57610100808354040283529160200191610325565b820191906000526020600020905b81548152906001019060200180831161030857829003601f168201915b50505050508152602001600282015481526020016003820160009054906101000a900460ff161515151581526020016003820160019054906101000a900473ffffffffffffffffffffffffffffffffffffffff1673ffffffffffffffffffffffffffffffffffffffff1673ffffffffffffffffffffffffffffffffffffffff16815250509050919050565b60005481565b6040518060a001604052806000548152602001838152602001828152602001600115158152602001600073ffffffffffffffffffffffffffffffffffffffff16815250600160008054815260200190815260200160002060008201518160000155602082015181600101908161042c9190610e3d565b506040820151816002015560608201518160030160006101000a81548160ff02191690831515021790555060808201518160030160016101000a81548173ffffffffffffffffffffffffffffffffffffffff021916908373ffffffffffffffffffffffffffffffffffffffff1602179055509050507fc7e9162c67bcf36a9897d9c95466ec8a031fc9ba47d5a3989c060dd040c2c01560005483836040516104d693929190610f0f565b60405180910390a16000808154809291906104f090610f7c565b91905055505050565b600060016000848152602001908152602001600020905060008160030160006101000a81548160ff021916908315150217905550338160030160016101000a81548173ffffffffffffffffffffffffffffffffffffffff021916908373ffffffffffffffffffffffffffffffffffffffff1602179055507fe880d822f4bdb63368fee99cd4a95706e7c7fdf51c0d2edd68bb8f4d0ea0fe728333846040516105a393929190610fc4565b60405180910390a1505050565b60606040518060400160405280600d81526020017f48656c6c6f2c20776f726c642100000000000000000000000000000000000000815250905090565b600160205280600052604060002060009150905080600001549080600101805461061690610c60565b80601f016020809104026020016040519081016040528092919081815260200182805461064290610c60565b801561068f5780601f106106645761010080835404028352916020019161068f565b820191906000526020600020905b81548152906001019060200180831161067257829003601f168201915b5050505050908060020154908060030160009054906101000a900460ff16908060030160019054906101000a900473ffffffffffffffffffffffffffffffffffffffff16905085565b6040518060a00160405280600081526020016060815260200160008152602001600015158152602001600073ffffffffffffffffffffffffffffffffffffffff1681525090565b6000604051905090565b600080fd5b600080fd5b6000819050919050565b61074681610733565b811461075157600080fd5b50565b6000813590506107638161073d565b92915050565b60006020828403121561077f5761077e610729565b5b600061078d84828501610754565b91505092915050565b61079f81610733565b82525050565b600081519050919050565b600082825260208201905092915050565b60005b838110156107df5780820151818401526020810190506107c4565b60008484015250505050565b6000601f19601f8301169050919050565b6000610807826107a5565b61081181856107b0565b93506108218185602086016107c1565b61082a816107eb565b840191505092915050565b60008115159050919050565b61084a81610835565b82525050565b600073ffffffffffffffffffffffffffffffffffffffff82169050919050565b600061087b82610850565b9050919050565b61088b81610870565b82525050565b600060a0830160008301516108a96000860182610796565b50602083015184820360208601526108c182826107fc565b91505060408301516108d66040860182610796565b5060608301516108e96060860182610841565b5060808301516108fc6080860182610882565b508091505092915050565b600060208201905081810360008301526109218184610891565b905092915050565b61093281610733565b82525050565b600060208201905061094d6000830184610929565b92915050565b600080fd5b600080fd5b7f4e487b7100000000000000000000000000000000000000000000000000000000600052604160045260246000fd5b610995826107eb565b810181811067ffffffffffffffff821117156109b4576109b361095d565b5b80604052505050565b60006109c761071f565b90506109d3828261098c565b919050565b600067ffffffffffffffff8211156109f3576109f261095d565b5b6109fc826107eb565b9050602081019050919050565b82818337600083830152505050565b6000610a2b610a26846109d8565b6109bd565b905082815260208101848484011115610a4757610a46610958565b5b610a52848285610a09565b509392505050565b600082601f830112610a6f57610a6e610953565b5b8135610a7f848260208601610a18565b91505092915050565b60008060408385031215610a9f57610a9e610729565b5b600083013567ffffffffffffffff811115610abd57610abc61072e565b5b610ac985828601610a5a565b9250506020610ada85828601610754565b9150509250929050565b60008060408385031215610afb57610afa610729565b5b6000610b0985828601610754565b9250506020610b1a85828601610754565b9150509250929050565b600082825260208201905092915050565b6000610b40826107a5565b610b4a8185610b24565b9350610b5a8185602086016107c1565b610b63816107eb565b840191505092915050565b60006020820190508181036000830152610b888184610b35565b905092915050565b610b9981610835565b82525050565b610ba881610870565b82525050565b600060a082019050610bc36000830188610929565b8181036020830152610bd58187610b35565b9050610be46040830186610929565b610bf16060830185610b90565b610bfe6080830184610b9f565b9695505050505050565b6000604082019050610c1d6000830185610929565b610c2a6020830184610b9f565b9392505050565b7f4e487b7100000000000000000000000000000000000000000000000000000000600052602260045260246000fd5b60006002820490506001821680610c7857607f821691505b602082108103610c8b57610c8a610c31565b5b50919050565b60008190508160005260206000209050919050565b60006020601f8301049050919050565b600082821b905092915050565b600060088302610cf37fffffffffffffffffffffffffffffffffffffffffffffffffffffffffffffffff82610cb6565b610cfd8683610cb6565b95508019841693508086168417925050509392505050565b6000819050919050565b6000610d3a610d35610d3084610733565b610d15565b610733565b9050919050565b6000819050919050565b610d5483610d1f565b610d68610d6082610d41565b848454610cc3565b825550505050565b600090565b610d7d610d70565b610d88818484610d4b565b505050565b5b81811015610dac57610da1600082610d75565b600181019050610d8e565b5050565b601f821115610df157610dc281610c91565b610dcb84610ca6565b81016020851015610dda578190505b610dee610de685610ca6565b830182610d8d565b50505b505050565b600082821c905092915050565b6000610e1460001984600802610df6565b1980831691505092915050565b6000610e2d8383610e03565b9150826002028217905092915050565b610e46826107a5565b67ffffffffffffffff811115610e5f57610e5e61095d565b5b610e698254610c60565b610e74828285610db0565b600060209050601f831160018114610ea75760008415610e95578287015190505b610e9f8582610e21565b865550610f07565b601f198416610eb586610c91565b60005b82811015610edd57848901518255600182019150602085019450602081019050610eb8565b86831015610efa5784890151610ef6601f891682610e03565b8355505b6001600288020188555050505b505050505050565b6000606082019050610f246000830186610929565b8181036020830152610f368185610b35565b9050610f456040830184610929565b949350505050565b7f4e487b7100000000000000000000000000000000000000000000000000000000600052601160045260246000fd5b6000610f8782610733565b91507fffffffffffffffffffffffffffffffffffffffffffffffffffffffffffffffff8203610fb957610fb8610f4d565b5b600182019050919050565b6000606082019050610fd96000830186610929565b610fe66020830185610b9f565b610ff36040830184610929565b94935050505056fea2646970667358221220ae33e86750a4130a7dd7ce1c55c04bf0af8a4577cf6bf16157570f87c335ef0064736f6c63430008130033",
  "immutableReferences": {},
  "source": "// SPDX-License-Identifier: MIT\npragma solidity ^0.8.19;\n\ncontract SimpleCarRental {\n\n    struct Car {\n        uint256 id;\n        string model;\n        uint256 pricePerDay;\n        bool isAvailable;\n        address renter;\n    }\n\n    uint256 public nextCarId = 1;\n    mapping(uint256 => Car) public cars;\n\n    event CarAdded(uint256 carId, string model, uint256 pricePerDay);\n    event CarRented(uint256 carId, address renter, uint256 daysRented);\n    event CarReturned(uint256 carId, address renter);\n\n     function helloWorld() public pure returns (string memory) {\n            return \"Hello, world!\";\n        }\n\n    function addCar(string memory model, uint256 pricePerDay) public {\n        cars[nextCarId] = Car(nextCarId, model, pricePerDay, true, address(0));\n        emit CarAdded(nextCarId, model, pricePerDay);\n        nextCarId++;\n    }\n\n    function rentCar(uint256 carId, uint256 numberOfDays) public payable {\n        Car storage car = cars[carId];\n        car.isAvailable = false;\n        car.renter = msg.sender;\n        emit CarRented(carId, msg.sender, numberOfDays);\n    }\n\n    function returnCar(uint256 carId) public {\n        Car storage car = cars[carId];\n        car.isAvailable = true;\n        car.renter = address(0);\n        emit CarReturned(carId, msg.sender);\n    }\n\n    function getCar(uint256 carId) public view returns (Car memory) {\n        return cars[carId];\n    }\n\n}\n",
  "sourcePath": "/Users/mikewegele/source/fu/semester3/smart-contract/smart-contract-vehicle/blockchain/contracts/CarRental.sol",
  "compiler": {
    "name": "solc",
    "version": "0.8.19+commit.7dd6d404.Emscripten.clang"
  },
  "schemaVersion": "3.4.16",
  "updatedAt": "2025-06-11T09:04:10.028Z",
  "devdoc": {
    "kind": "dev",
    "methods": {},
    "version": 1
  },
  "userdoc": {
    "kind": "user",
    "methods": {},
    "version": 1
  }
}