{
  "contractName": "SimpleCarRental",
  "abi": [
    {
      "anonymous": false,
      "inputs": [
        {
          "indexed": false,
          "internalType": "uint256",
          "name": "carId",
          "type": "uint256"
        },
        {
          "indexed": false,
          "internalType": "string",
          "name": "model",
          "type": "string"
        },
        {
          "indexed": false,
          "internalType": "uint256",
          "name": "pricePerDay",
          "type": "uint256"
        }
      ],
      "name": "CarAdded",
      "type": "event"
    },
    {
      "anonymous": false,
      "inputs": [
        {
          "indexed": false,
          "internalType": "uint256",
          "name": "carId",
          "type": "uint256"
        },
        {
          "indexed": false,
          "internalType": "address",
          "name": "renter",
          "type": "address"
        },
        {
          "indexed": false,
          "internalType": "uint256",
          "name": "daysRented",
          "type": "uint256"
        }
      ],
      "name": "CarRented",
      "type": "event"
    },
    {
      "anonymous": false,
      "inputs": [
        {
          "indexed": false,
          "internalType": "uint256",
          "name": "carId",
          "type": "uint256"
        },
        {
          "indexed": false,
          "internalType": "address",
          "name": "renter",
          "type": "address"
        }
      ],
      "name": "CarReturned",
      "type": "event"
    },
    {
      "inputs": [
        {
          "internalType": "uint256",
          "name": "",
          "type": "uint256"
        }
      ],
      "name": "cars",
      "outputs": [
        {
          "internalType": "uint256",
          "name": "id",
          "type": "uint256"
        },
        {
          "internalType": "string",
          "name": "model",
          "type": "string"
        },
        {
          "internalType": "uint256",
          "name": "pricePerDay",
          "type": "uint256"
        },
        {
          "internalType": "bool",
          "name": "isAvailable",
          "type": "bool"
        },
        {
          "internalType": "address",
          "name": "renter",
          "type": "address"
        }
      ],
      "stateMutability": "view",
      "type": "function"
    },
    {
      "inputs": [],
      "name": "initialized",
      "outputs": [
        {
          "internalType": "bool",
          "name": "",
          "type": "bool"
        }
      ],
      "stateMutability": "view",
      "type": "function"
    },
    {
      "inputs": [],
      "name": "nextCarId",
      "outputs": [
        {
          "internalType": "uint256",
          "name": "",
          "type": "uint256"
        }
      ],
      "stateMutability": "view",
      "type": "function"
    },
    {
      "inputs": [],
      "name": "totalCars",
      "outputs": [
        {
          "internalType": "uint256",
          "name": "",
          "type": "uint256"
        }
      ],
      "stateMutability": "view",
      "type": "function"
    },
    {
      "inputs": [],
      "name": "helloWorld",
      "outputs": [
        {
          "internalType": "string",
          "name": "",
          "type": "string"
        }
      ],
      "stateMutability": "pure",
      "type": "function"
    },
    {
      "inputs": [
        {
          "internalType": "uint256[]",
          "name": "ids",
          "type": "uint256[]"
        },
        {
          "internalType": "string[]",
          "name": "models",
          "type": "string[]"
        },
        {
          "internalType": "uint256[]",
          "name": "prices",
          "type": "uint256[]"
        }
      ],
      "name": "initializeDefaultCars",
      "outputs": [],
      "stateMutability": "nonpayable",
      "type": "function"
    },
    {
      "inputs": [
        {
          "internalType": "uint256",
          "name": "carId",
          "type": "uint256"
        },
        {
          "internalType": "uint256",
          "name": "numberOfDays",
          "type": "uint256"
        }
      ],
      "name": "rentCar",
      "outputs": [],
      "stateMutability": "payable",
      "type": "function"
    }
  ],
  "bytecode": "0x6080604052600160005534801561001557600080fd5b50611263806100256000396000f3fe6080604052600436106100705760003560e01c80639ca0fc0d1161004e5780639ca0fc0d146100f6578063c605f76c14610112578063f04bfe5c1461013d578063f7746e361461016657610070565b8063158ef93e14610075578063214e563c146100a05780638c8bfa06146100cb575b600080fd5b34801561008157600080fd5b5061008a6101a7565b60405161009791906106b2565b60405180910390f35b3480156100ac57600080fd5b506100b56101ba565b6040516100c291906106e6565b60405180910390f35b3480156100d757600080fd5b506100e06101c0565b6040516100ed91906106e6565b60405180910390f35b610110600480360381019061010b9190610741565b6101c6565b005b34801561011e57600080fd5b50610127610326565b6040516101349190610811565b60405180910390f35b34801561014957600080fd5b50610164600480360381019061015f9190610b11565b610363565b005b34801561017257600080fd5b5061018d60048036038101906101889190610bb8565b6105ac565b60405161019e959493929190610c26565b60405180910390f35b600260009054906101000a900460ff1681565b60015481565b60005481565b60006003600084815260200190815260200160002090508060030160009054906101000a900460ff1661022e576040517f08c379a000000000000000000000000000000000000000000000000000000000815260040161022590610ccc565b60405180910390fd5b60008160020154836102409190610d1b565b905080341015610285576040517f08c379a000000000000000000000000000000000000000000000000000000000815260040161027c90610da9565b60405180910390fd5b60008260030160006101000a81548160ff021916908315150217905550338260030160016101000a81548173ffffffffffffffffffffffffffffffffffffffff021916908373ffffffffffffffffffffffffffffffffffffffff1602179055507fe880d822f4bdb63368fee99cd4a95706e7c7fdf51c0d2edd68bb8f4d0ea0fe7284338560405161031893929190610dc9565b60405180910390a150505050565b60606040518060400160405280600d81526020017f48656c6c6f2c20776f726c642100000000000000000000000000000000000000815250905090565b600260009054906101000a900460ff16156103b3576040517f08c379a00000000000000000000000000000000000000000000000000000000081526004016103aa90610e4c565b60405180910390fd5b815183511480156103c5575080518251145b610404576040517f08c379a00000000000000000000000000000000000000000000000000000000081526004016103fb90610eb8565b60405180910390fd5b60005b835181101561058b576040518060a0016040528085838151811061042e5761042d610ed8565b5b6020026020010151815260200184838151811061044e5761044d610ed8565b5b6020026020010151815260200183838151811061046e5761046d610ed8565b5b60200260200101518152602001600115158152602001600073ffffffffffffffffffffffffffffffffffffffff16815250600360008684815181106104b6576104b5610ed8565b5b602002602001015181526020019081526020016000206000820151816000015560208201518160010190816104eb9190611113565b506040820151816002015560608201518160030160006101000a81548160ff02191690831515021790555060808201518160030160016101000a81548173ffffffffffffffffffffffffffffffffffffffff021916908373ffffffffffffffffffffffffffffffffffffffff16021790555090505060016000815480929190610573906111e5565b91905055508080610583906111e5565b915050610407565b506001600260006101000a81548160ff021916908315150217905550505050565b60036020528060005260406000206000915090508060000154908060010180546105d590610f36565b80601f016020809104026020016040519081016040528092919081815260200182805461060190610f36565b801561064e5780601f106106235761010080835404028352916020019161064e565b820191906000526020600020905b81548152906001019060200180831161063157829003601f168201915b5050505050908060020154908060030160009054906101000a900460ff16908060030160019054906101000a900473ffffffffffffffffffffffffffffffffffffffff16905085565b60008115159050919050565b6106ac81610697565b82525050565b60006020820190506106c760008301846106a3565b92915050565b6000819050919050565b6106e0816106cd565b82525050565b60006020820190506106fb60008301846106d7565b92915050565b6000604051905090565b600080fd5b600080fd5b61071e816106cd565b811461072957600080fd5b50565b60008135905061073b81610715565b92915050565b600080604083850312156107585761075761070b565b5b60006107668582860161072c565b92505060206107778582860161072c565b9150509250929050565b600081519050919050565b600082825260208201905092915050565b60005b838110156107bb5780820151818401526020810190506107a0565b60008484015250505050565b6000601f19601f8301169050919050565b60006107e382610781565b6107ed818561078c565b93506107fd81856020860161079d565b610806816107c7565b840191505092915050565b6000602082019050818103600083015261082b81846107d8565b905092915050565b600080fd5b7f4e487b7100000000000000000000000000000000000000000000000000000000600052604160045260246000fd5b610870826107c7565b810181811067ffffffffffffffff8211171561088f5761088e610838565b5b80604052505050565b60006108a2610701565b90506108ae8282610867565b919050565b600067ffffffffffffffff8211156108ce576108cd610838565b5b602082029050602081019050919050565b600080fd5b60006108f76108f2846108b3565b610898565b9050808382526020820190506020840283018581111561091a576109196108df565b5b835b81811015610943578061092f888261072c565b84526020840193505060208101905061091c565b5050509392505050565b600082601f83011261096257610961610833565b5b81356109728482602086016108e4565b91505092915050565b600067ffffffffffffffff82111561099657610995610838565b5b602082029050602081019050919050565b600080fd5b600067ffffffffffffffff8211156109c7576109c6610838565b5b6109d0826107c7565b9050602081019050919050565b82818337600083830152505050565b60006109ff6109fa846109ac565b610898565b905082815260208101848484011115610a1b57610a1a6109a7565b5b610a268482856109dd565b509392505050565b600082601f830112610a4357610a42610833565b5b8135610a538482602086016109ec565b91505092915050565b6000610a6f610a6a8461097b565b610898565b90508083825260208201905060208402830185811115610a9257610a916108df565b5b835b81811015610ad957803567ffffffffffffffff811115610ab757610ab6610833565b5b808601610ac48982610a2e565b85526020850194505050602081019050610a94565b5050509392505050565b600082601f830112610af857610af7610833565b5b8135610b08848260208601610a5c565b91505092915050565b600080600060608486031215610b2a57610b2961070b565b5b600084013567ffffffffffffffff811115610b4857610b47610710565b5b610b548682870161094d565b935050602084013567ffffffffffffffff811115610b7557610b74610710565b5b610b8186828701610ae3565b925050604084013567ffffffffffffffff811115610ba257610ba1610710565b5b610bae8682870161094d565b9150509250925092565b600060208284031215610bce57610bcd61070b565b5b6000610bdc8482850161072c565b91505092915050565b600073ffffffffffffffffffffffffffffffffffffffff82169050919050565b6000610c1082610be5565b9050919050565b610c2081610c05565b82525050565b600060a082019050610c3b60008301886106d7565b8181036020830152610c4d81876107d8565b9050610c5c60408301866106d7565b610c6960608301856106a3565b610c766080830184610c17565b9695505050505050565b7f436172206e6f7420617661696c61626c65000000000000000000000000000000600082015250565b6000610cb660118361078c565b9150610cc182610c80565b602082019050919050565b60006020820190508181036000830152610ce581610ca9565b9050919050565b7f4e487b7100000000000000000000000000000000000000000000000000000000600052601160045260246000fd5b6000610d26826106cd565b9150610d31836106cd565b9250828202610d3f816106cd565b91508282048414831517610d5657610d55610cec565b5b5092915050565b7f4e6f7420656e6f7567682045746865722073656e740000000000000000000000600082015250565b6000610d9360158361078c565b9150610d9e82610d5d565b602082019050919050565b60006020820190508181036000830152610dc281610d86565b9050919050565b6000606082019050610dde60008301866106d7565b610deb6020830185610c17565b610df860408301846106d7565b949350505050565b7f4361727320616c726561647920696e697469616c697a65640000000000000000600082015250565b6000610e3660188361078c565b9150610e4182610e00565b602082019050919050565b60006020820190508181036000830152610e6581610e29565b9050919050565b7f4d69736d617463686564206172726179206c656e677468730000000000000000600082015250565b6000610ea260188361078c565b9150610ead82610e6c565b602082019050919050565b60006020820190508181036000830152610ed181610e95565b9050919050565b7f4e487b7100000000000000000000000000000000000000000000000000000000600052603260045260246000fd5b7f4e487b7100000000000000000000000000000000000000000000000000000000600052602260045260246000fd5b60006002820490506001821680610f4e57607f821691505b602082108103610f6157610f60610f07565b5b50919050565b60008190508160005260206000209050919050565b60006020601f8301049050919050565b600082821b905092915050565b600060088302610fc97fffffffffffffffffffffffffffffffffffffffffffffffffffffffffffffffff82610f8c565b610fd38683610f8c565b95508019841693508086168417925050509392505050565b6000819050919050565b600061101061100b611006846106cd565b610feb565b6106cd565b9050919050565b6000819050919050565b61102a83610ff5565b61103e61103682611017565b848454610f99565b825550505050565b600090565b611053611046565b61105e818484611021565b505050565b5b818110156110825761107760008261104b565b600181019050611064565b5050565b601f8211156110c75761109881610f67565b6110a184610f7c565b810160208510156110b0578190505b6110c46110bc85610f7c565b830182611063565b50505b505050565b600082821c905092915050565b60006110ea600019846008026110cc565b1980831691505092915050565b600061110383836110d9565b9150826002028217905092915050565b61111c82610781565b67ffffffffffffffff81111561113557611134610838565b5b61113f8254610f36565b61114a828285611086565b600060209050601f83116001811461117d576000841561116b578287015190505b61117585826110f7565b8655506111dd565b601f19841661118b86610f67565b60005b828110156111b35784890151825560018201915060208501945060208101905061118e565b868310156111d057848901516111cc601f8916826110d9565b8355505b6001600288020188555050505b505050505050565b60006111f0826106cd565b91507fffffffffffffffffffffffffffffffffffffffffffffffffffffffffffffffff820361122257611221610cec565b5b60018201905091905056fea2646970667358221220a76c90f4787f29d381254ae9310904cd8e4383c6222d931fe5ea7dc8ca8ab13364736f6c63430008130033",
  "immutableReferences": {},
  "source": "// SPDX-License-Identifier: MIT\npragma solidity ^0.8.19;\n\ncontract SimpleCarRental {\n\n    struct Car {\n        uint256 id;\n        string model;\n        uint256 pricePerDay;\n        bool isAvailable;\n        address renter;\n    }\n\n    uint256 public nextCarId = 1;\n    uint256 public totalCars;\n    bool public initialized;\n\n    mapping(uint256 => Car) public cars;\n\n    event CarAdded(uint256 carId, string model, uint256 pricePerDay);\n    event CarRented(uint256 carId, address renter, uint256 daysRented);\n    event CarReturned(uint256 carId, address renter);\n\n    function helloWorld() public pure returns (string memory) {\n        return \"Hello, world!\";\n    }\n\n    modifier onlyIfNotInitialized() {\n        require(!initialized, \"Cars already initialized\");\n        _;\n    }\n\n    function initializeDefaultCars(\n        uint256[] memory ids,\n        string[] memory models,\n        uint256[] memory prices\n    ) public onlyIfNotInitialized {\n        require(\n            ids.length == models.length && models.length == prices.length,\n            \"Mismatched array lengths\"\n        );\n\n        for (uint i = 0; i < ids.length; i++) {\n            cars[ids[i]] = Car({\n                id: ids[i],\n                model: models[i],\n                pricePerDay: prices[i],\n                isAvailable: true,\n                renter: address(0)\n            });\n            totalCars++;\n        }\n\n        initialized = true;\n    }\n\n    function rentCar(uint256 carId, uint256 numberOfDays) public payable {\n        Car storage car = cars[carId];\n        require(car.isAvailable, \"Car not available\");\n\n        uint256 totalPrice = numberOfDays * car.pricePerDay;\n        require(msg.value >= totalPrice, \"Not enough Ether sent\");\n\n        car.isAvailable = false;\n        car.renter = msg.sender;\n\n        emit CarRented(carId, msg.sender, numberOfDays);\n    }\n}\n",
  "sourcePath": "/Users/mikewegele/source/fu/semester3/smart-contract/smart-contract-vehicle/blockchain/contracts/CarRental.sol",
  "compiler": {
    "name": "solc",
    "version": "0.8.19+commit.7dd6d404.Emscripten.clang"
  },
  "schemaVersion": "3.4.16",
  "updatedAt": "2025-06-14T09:53:49.060Z",
  "devdoc": {
    "kind": "dev",
    "methods": {},
    "version": 1
  },
  "userdoc": {
    "kind": "user",
    "methods": {},
    "version": 1
  }
}